:100000000C94E6090C940E0A0C940E0A0C94DC0F66
:100010000C94B80F0C94940F0C940E0A0C940E0AC6
:100020000C940E0A0C940E0A0C940E0A0C940E0AF0
:100030000C940E0A0C940E0A0C940E0A0C940E0AE0
:100040000C94050D0C940E0A0C94110C0C94EB0BF3
:100050000C940E0A0C940E0A0C940E0A0C940E0AC0
:100060000C944F0D0C940E0A4200412300410047AE
:100070002300470046230046004500442300440077
:10008000432300430000000000240027002A0083CF
:100090000080007E007B0079007700740072006FA2
:1000A000006D006A006800536F756E6420656666B7
:1000B00065637473005065726375737369766573F5
:1000C000004574686E6963730053796E74682045E7
:1000D0006666656374730053796E7468205061645A
:1000E000730053796E7468204C65616473005069C5
:1000F0007065730052656564730042726173657365
:1001000000456E73656D626C657300537472696E41
:100110006773004261736573004775697461727338
:10012000004F7267616E730043682E2050657263E2
:10013000757373696F6E73005069616E6F730047FA
:10014000756E73686F74004170706C6175736500D3
:1001500048656C69636F707465720054656C657096
:10016000686F6E652052696E670042697264205440
:10017000776565740053656173686F7265004272DC
:1001800065617468204E6F6973650047742E204660
:10019000726574204E6F697365005265766572737F
:1001A000652043796D62616C0053796E74682044F8
:1001B00072756D004D656C6F64696320546F6D00DE
:1001C0005461696B6F204472756D00576F6F646284
:1001D0006C6F636B00537465656C204472756D734E
:1001E0000041676F676F0054696E6B6C65204265F4
:1001F0006C6C005368616E616900466964646C658B
:100200000042616770697065004B616C696D626185
:10021000004B6F746F005368616D6973656E0042C7
:10022000616E6A6F005369746172004658202D2018
:100230005363692D6669004658202D204563686F19
:100240006573004658202D20476F626C696E7300FD
:100250004658202D204272696768746E657373007A
:100260004658202D2041746D6F737068657265006B
:100270004658202D204372797374616C00465820D3
:100280002D20536F756E64747261636B0046582045
:100290002D205261696E00506164202D20537765D6
:1002A000657000506164202D2048616C6F005061C2
:1002B00064202D204D6574616C6C6963005061642D
:1002C000202D20426F77656400506164202D20430B
:1002D000686F697200506164202D20506F6C7973D3
:1002E000796E746800506164202D205761726D0032
:1002F000506164202D204E657720416765004C6574
:100300006164202D20426173732F4C656164004C41
:10031000656164202D20466966746873004C6561D0
:1003200064202D20566F696365004C656164202D43
:100330002043686172616E67004C656164202D2006
:100340004368696666004C656164202D2043616CDA
:100350006C696F7065004C656164202D2053617776
:10036000746F6F7468004C656164202D2053717543
:10037000617265004F636172696E610057686973ED
:10038000746C65005368616B7568616368690042ED
:100390006C6F776E20626F74746C650050616E20B4
:1003A000466C757465005265636F726465720046D1
:1003B0006C75746500506963636F6C6F00436C61AA
:1003C00072696E657400426173736F6F6E00456E83
:1003D000676C69736820486F726E004F626F6500CA
:1003E00042617269746F6E65205361780054656E66
:1003F0006F722053617800416C746F2053617800F4
:10040000536F7072616E6F205361780053796E7410
:100410006820427261737320320053796E746820D1
:1004200042726173732031004272617373205365AD
:100430006374696F6E004672656E636820486F7200
:100440006E004D75746564205472756D706574002E
:10045000547562610054726F6D626F6E6500547204
:10046000756D706574004F72636865737472612096
:100470004869740053796E74682043686F6972002C
:10048000566F696365204F6F68730043686F6972C8
:1004900020416168730053796E74682053747269E7
:1004A0006E677320320053796E74682053747269DA
:1004B0006E6773203100537472696E6720456E73E6
:1004C0002E203200537472696E6720456E732E20A1
:1004D000310054696D70616E69004F7263686573B5
:1004E0007472616C20486172700050697A7A696335
:1004F0002E20537472696E6773005472656D6F6C51
:100500006F20537472696E677300436F6E7472610B
:10051000626173730043656C6C6F0056696F6C6148
:100520000056696F6C696E0053796E746820426181
:10053000737320320053796E7468204261737320A4
:100540003100536C61702042617373203200536C30
:1005500061702042617373203100467265746C656E
:100560007373204261737300456C2E204261737374
:10057000207069636B00456C2E20426173732066A6
:10058000696E6765720041636F75737469632042B9
:1005900061737300477569746172204861726D6F91
:1005A0006E69637300446973746F72742E204775AB
:1005B00069746172004F76657264722E20477569A6
:1005C00074617200456C2E477569746172206D7597
:1005D00074656400456C2E47756974617220636CA4
:1005E00065616E00456C2E477569746172206A61A1
:1005F0007A7A0041632E477569746172207374655D
:10060000656C0041632E477569746172206E796C68
:100610006F6E0054616E676F204163636F7264692F
:100620006F6E004861726D6F6E6963610041636354
:100630006F7264696F6E0052656564204F72676106
:100640006E00436875726368204F7267616E005276
:100650006F636B204F7267616E00506572637573D4
:1006600073697665204F7267616E004472617762CC
:100670006172204F7267616E0044756C63696D65CD
:100680007200547562756C61722042656C6C730007
:1006900058796C6F70686F6E65004D6172696D623C
:1006A0006100566962726170686F6E65004D7573A6
:1006B000696320426F7800476C6F636B656E73707F
:1006C00069656C0043656C6573746100436C6176A9
:1006D000696E65740048617270736963686F7264F3
:1006E00000456C656374726963205069616E6F20A8
:1006F0003200456C656374726963205069616E6F86
:10070000203100486F6E6B792D746F6E6B205069CD
:10071000616E6F00456C2E204772616E64205069D7
:10072000616E6F004272696768742041632E2050C9
:1007300069616E6F0041632E204772616E642050C4
:1007400069616E6F00380128012101190113010B45
:10075000010101FA00F400EE00E200D700C900C177
:1007600000B500A7003507240714070307F206E1C8
:1007700006D506CC06C406B706AD06A2069A0690B4
:1007800006820679066B065A064F06420637062D84
:1007900006230613060306F305E405D405C405B5D0
:1007A00005A50594058605760568055A054E05429A
:1007B000053505280521051B0515050A05FA04EA76
:1007C00004DA04D204C404B604A60496048B04809C
:1007D00004740466045E045504500442043604287C
:1007E000041A040C040004F703ED03E003DB03CE5A
:1007F00003C603BD03B503AF03A6039C038F0384A5
:10080000037C03740366035603460339032A031D5E
:10081000030F03FE02F002E502D502C902BD02AEDB
:1008200002A30297028D027D027002600250024311
:100830000237022B0225021F0216021102090201D1
:1008400002FA01F301E701E101D501CB01C001B4D6
:1008500001A9019A018B017E0175016A015B0150BA
:100860000147013F010000000800020100000304ED
:100870000700000000000000000000000000000071
:100880000000000000000000000000000000001F49
:10089000CC000C00000000000000000800300060E8
:1008A000000800300060000000022003FC1E20024F
:1008B0002003FC1E200220000000000E1811043F3F
:1008C000FF10840C78000000000F0010840F380027
:1008D000C0077818840078000000780F8410C411D5
:1008E000240E9800E40084000808006800700000EE
:1008F00000000000000000000000000000000007F1
:10090000E0181820044002000000004002200418F3
:100910001807E00000000000000240024001800FC4
:10092000F001800240024000000080008000800F43
:10093000F800800080008000000001000D000E0023
:1009400000000000000000000000000080008000A7
:100950008000800080008000800000000C000C00FF
:100960000000000000000000000000000600180069
:10097000600180060018002000000007F008081041
:10098000041004080807F000000000080408041F11
:10099000FC000400040000000000000E0C10141005
:1009A00024104411840E0C000000000C18100411D7
:1009B00004110412880C700000000000E003200401
:1009C0002408241FFC0024000000001F981084113C
:1009D000041104108810700000000007F00888114E
:1009E00004110418880070000000001C00100010A2
:1009F000FC13001C001000000000000E3811441011
:100A000084108411440E38000000000700088C1088
:100A1000441044088807F0000000000000000003B4
:100A20000C030C00000000000000000000000101A9
:100A300006000000000000000000000080014002ED
:100A400020041008081004000002200220022002E6
:100A500020022002200220000000001004080804E8
:100A600010022001400080000000000E0012001063
:100A70000C106C10800F00000003E00C1813E4143D
:100A80002417C4082807D000000004003C03C41C3D
:100A900040074000E4001C000410041FFC11041176
:100AA0000411040E880070000003E00C18100410FC
:100AB00004100410081C10000010041FFC10041087
:100AC000041004080807F0000010041FFC110411B2
:100AD0000417C410040818000010041FFC110411AE
:100AE0000017C010000800000003E00C18100410EC
:100AF0000410441C780040000010041FFC10840007
:100B000080008010841FFC10040000100410041FDB
:100B1000FC1004100400000000000300011001108C
:100B2000011FFE10001000000010041FFC11040340
:100B3000801464181C1004000010041FFC10040032
:100B40000400040004000C000010041FFC1F00003F
:100B5000FC1F001FFC1004000010041FFC0C040309
:100B60000000E010181FFC100007F0080810041027
:100B7000041004080807F0000010041FFC10841083
:100B800080108010800F00000007F008181024105B
:100B900024101C080A07F2000010041FFC110411A5
:100BA0000011C011300E0C000400000E1C110410C6
:100BB00084108410441C3800001800100010041F1A
:100BC000FC100410001800000010001FF8100400B2
:100BD00004000410041FF8100010001E0011E000B3
:100BE0001C007013801C0010001FC0103C00E01F90
:100BF0000000E0103C1FC000001004180C16340167
:100C0000C001C01634180C100410001C001304009E
:100C1000FC13041C00100000000804101C106410D9
:100C20008413041C04101800000000000000007F62
:100C3000FE4002400240020000000030000C0003B1
:100C4000800060001C0003000000004002400240E1
:100C5000027FFE00000000000000000000200040B5
:100C600000400040002000000000010001000100E1
:100C700001000100010001000100004000400020CF
:100C800000000000000000000000000098012401A6
:100C9000440144014400FC000410001FFC008801D2
:100CA000040104008800700000000000700088014A
:100CB00004010401040088000000000070008801A5
:100CC00004010411081FFC0004000000F8014401A5
:100CD000440144014400C800000000010401040F65
:100CE000FC1104110411001800000000D6012901B4
:100CF00029012901C90106000010041FFC0084011C
:100D0000000100010400FC000400000104190419A2
:100D1000FC000400040000000000000003000101CA
:100D200001190119FE0000000010041FFC0024003E
:100D30004001B4010C010400000000100410041F65
:100D4000FC0004000400000000010401FC01040197
:100D50000001FC0104010000FC010401FC0084010D
:100D6000000100010400FC0004000000F80104017F
:100D7000040104010400F80000010101FF008501E5
:100D80000401040088007000000000007000880169
:100D9000040104010501FF00010104010401FC003C
:100DA000840104010001800000000000CC01240146
:100DB0002401240124019800000000010001000723
:100DC000F80104010400000000010001F800040023
:100DD000040004010801FC0004010001800170000E
:100DE0000C001001600180010001F0010C003001D5
:100DF000C00030010C01F0010000000104018C0072
:100E0000740170018C010400000101018101710075
:100E10000E001801600180010000000184010C0136
:100E20003401440184010C000000000000000000B7
:100E30000001003EFC4002400200000000000000F3
:100E400000FFFF0000000000000000400240023EE2
:100E5000FC01000000000000000000600080008035
:100E600000400040002000200000000000000000C2
:100E70000000000000000000003F400000000000F3
:100E80000000003000400030004000000009000B6E
:100E9000C03D000BC03D00090018C024407FE02287
:100EA0004031800000180024C01B000D803240013A
:100EB0008003801C4027401C8007400040100060D9
:100EC0000000000000000000000000000000001F03
:100ED00080204040200000402020401F8000000073
:100EE00000090006001F800600090000000400043D
:100EF000003F8004000400000000100060000000BB
:100F000000000000000400040004000400040000CD
:100F10000000000040000000000000000000200170
:100F2000C006003800400000001F80204020402004
:100F3000401F800000000010403FC0004000000043
:100F40000018C0214022402440184000001080209A
:100F500040244024401B80000002000D0011003F8F
:100F6000C0014000003C80244024402440238000F5
:100F7000001F8024402440344003800000300020C3
:100F80000027C03800200000001B8024402440249B
:100F9000401B8000001C0022C0224022401F800015
:100FA00000000000000840000000000000000000F9
:100FB000000460000000000000000004000A0011AE
:100FC00000208040400900090009000900090000D4
:100FD0000000004040208011000A0004001800209A
:100FE0000023402400180000001F802040274029D3
:100FF000401F400000004007C039000F0001C00042
:101000004020403FC0244024401B8000001F80201F
:1010100040204020403080000020403FC020402041
:10102000401F80000020403FC024402E4030C000C0
:101030000020403FC024402E00300000000F001070
:1010400080204022403380020020403FC004000442
:10105000003FC02040204020403FC02040204000B2
:10106000000060202020203FC02000200020403FC2
:10107000C024400B0030C0204020403FC020400032
:1010800040004000C03FC03C0003C03C003FC000E7
:101090000020403FC00C4023003FC020001F8020A4
:1010A00040204020401F80000020403FC0244024BA
:1010B00000180000001F802140214020E01FA000F8
:1010C0000020403FC02440260019C0004018C02422
:1010D000402440224031800000300020403FC020AA
:1010E000403000000020003F80004000403F802052
:1010F0000020003E0001C007003800200038000733
:10110000C03C0007C038000000204039C00600394C
:10111000C0204000002000384007C03840200000B8
:1011200000304021C02640384020C00000000000B0
:10113000007FE0402040200000000070000C000311
:1011400080004000000000402040207FE0000000C0
:1011500000000020004000200000000000001000FF
:1011600010001000100010001000000000400000EF
:101170000000000000000002800540054003C000A0
:101180004020003FC00440044003800000000003F2
:101190008004400440064000000000038004402416
:1011A000403FC00040000003800540054003400070
:1011B00000000004401FC024402440200000000222
:1011C000E0055005500650042020403FC004400474
:1011D0000003C000400000044027C00040000000A1
:1011E0000000100010041027E00000000020403F25
:1011F000C00140070004C00440204020403FC00020
:10120000400040000007C0040007C0040003C00005
:1012100000044007C00440040003C0004000000375
:10122000800440044003800000041007F0045004D0
:101230004003800000000003800440045007F000D9
:1012400010044007C0024004000400000000000633
:10125000400540054004C00000000004001F800459
:101260004000400000040007800040044007C00028
:10127000400400070004C0018006000400060001CD
:10128000C0070001C006000000044006C0010006BF
:10129000C0044000000410071004E00180060004B0
:1012A000000000044005C0064004400000000000AB
:1012B0000004007BE040200000000000000000FF70
:1012C000F000000000000040207BE004000000006F
:1012D000004000800040002000200040000000008E
:1012E00000250028002B0000000000230026002914
:1012F00000040404040404040402020202020203BF
:1013000003030303030102040810204080010204C8
:1013100008102001020408102000C2010001001181
:101320000011000D0000E100000A00250025002248
:1013300000009600001900390039003600127A00CA
:10134000001F004600460044008070000022004D4F
:10135000004D004A00004B00003600750075007219
:1013600000403800004A009C009C00990080250045
:10137000007200EC00EC00E900C0120000E900DAA5
:1013800001DA01D70160090000D701B603B603B343
:1013900003B0040000B3036E076E076B072C010057
:1013A00000DC0EC11DC11DBE1D0704022205060082
:1013B0000103103021131211313A37353428292313
:1013C00024161B11100E0D0C0200781C11241FBED8
:1013D000CFEFD8E0DEBFCDBF24E0A8E2B2E001C08D
:1013E0001D92A435B207E1F712E0A0E0B1E0E2EA15
:1013F000FEE302C005900D92A832B107D9F719E0BB
:10140000C6EED9E004C02197FE010E94841DC53EAE
:10141000D107C9F70E944C160C944F1F0C94000082
:10142000CF92DF92EF92FF920F931F93CF93DF93B0
:101430006C017A018B01C0E0D0E0CE15DF0589F0A8
:10144000D8016D918D01D601ED91FC910190F08153
:10145000E02DC6010995892B11F47E0102C0219669
:10146000ECCFC701DF91CF911F910F91FF90EF90CB
:10147000DF90CF900895FC01918D828D981761F0D7
:10148000828DDF01A80FB11D5D968C91928D9F5FBB
:101490009F73928F90E008958FEF9FEF0895FC0166
:1014A000918D828D981731F0828DE80FF11D858D19
:1014B00090E008958FEF9FEF0895FC01918D228DAC
:1014C000892F90E0805C9F4F821B91098F73992731
:1014D000089589E493E00E945D0A21E0892B09F4D4
:1014E00020E0822F0895FC01848DDF01A80FB11D3B
:1014F000A35ABF4F2C91848D90E001968F7399274A
:10150000848FA689B7892C93A089B1898C91806436
:101510008C93938D848D981306C00288F389E02DF7
:1015200080818F7D80830895EF92FF920F931F93A8
:10153000CF93DF93EC0181E0888F9B8D8C8D981386
:1015400005C0E889F989808185FD24C0F62E0B8DC0
:1015500010E00F5F1F4F0F731127E02E8C8DE812E4
:101560000CC00FB607FCFACFE889F989808185FFA6
:10157000F5CFCE010E94730AF1CF8B8DFE01E80FEB
:10158000F11DE35AFF4FF0820B8FEA89FB898081BE
:10159000806207C0EE89FF896083E889F9898081CC
:1015A0008064808381E090E0DF91CF911F910F9163
:1015B000FF90EF900895CF93DF93EC01888D8823FF
:1015C000C9F0EA89FB89808185FD05C0A889B989B0
:1015D0008C9186FD0FC00FB607FCF5CF808185FF8B
:1015E000F2CFA889B9898C9185FFEDCFCE010E94F9
:1015F000730AE7CFDF91CF91089580E090E0892BC7
:1016000029F00E94690A81110C94000008953FB7E7
:10161000F8948091E3029091E402A091E502B091E8
:10162000E60226B5A89B05C02F3F19F00196A11D23
:10163000B11D3FBFBA2FA92F982F8827820F911D68
:10164000A11DB11DBC01CD0142E0660F771F881FAF
:10165000991F4A95D1F7089585ED8093BC0080913C
:10166000BC0084FDFCCF10920D0308954091B90297
:10167000262F30E0240F311D21323105DCF420917A
:101680000D032430C9F4FC0180E090E0861758F483
:101690003091B9022191DC01A956BD4FA30FB11DB4
:1016A0002C930196F3CF8091B902680F6093B90231
:1016B00080E0089581E0089582E008950895E09122
:1016C000290280912802E81730F4F0E0E65DFD4F32
:1016D000808190E008958FEF9FEF08959091290207
:1016E00080912802981750F4E92FF0E0E65DFD4F55
:1016F000208130E09F5F9093290202C02FEF3FEFDF
:10170000C90108958091280290E020912902821B4E
:1017100091090895CF92DF92EF92FF920F931F935A
:10172000CF93DF937C01262F972F8A0180910E03A0
:10173000882391F0C62FD72F6E01C40ED51ECC156D
:10174000DD0571F06991D701ED91FC910190F08177
:10175000E02DC7010995F3CF642F822F0E94360B2D
:10176000C801DF91CF911F910F91FF90EF90DF9013
:10177000CF900895CF93DF931F92CDB7DEB76983E3
:1017800020910E032223D1F020913103203240F02A
:1017900021E030E0FC013383228380E090E015C03B
:1017A00080910F03E82FF0E0E05FFC4F9981908378
:1017B0008F5F80930F038093310305C061E0CE01FA
:1017C00001960E94360B81E090E00F90DF91CF915F
:1017D00008950E94211F1F920F920FB60F9211249D
:1017E0002F933F934F935F936F937F938F939F9329
:1017F000AF93BF93EF93FF9389E493E00E94730A42
:10180000FF91EF91BF91AF919F918F917F916F91D8
:101810005F914F913F912F910F900FBE0F901F90AE
:1018200018951F920F920FB60F9211242F938F933A
:101830009F93EF93FF93E0915903F0915A038081B6
:10184000E0915F03F091600382FD12C0908180916E
:1018500062038F5F8F7320916303821751F0E091D1
:101860006203F0E0E75BFC4F958F8093620301C059
:101870008081FF91EF919F918F912F910F900FBEDB
:101880000F901F90189590E0FC01EB59F74F3491A1
:10189000FC01EB5FFC4E2491FC01EF50FD4EE49106
:1018A000EE2309F43BC0332339F1333091F038F49F
:1018B0003130A9F0323001F584B58F7D12C0373058
:1018C00091F03830A1F03430B9F4809180008F7DF0
:1018D00003C0809180008F77809380000DC084B515
:1018E0008F7784BD09C08091B0008F7703C080914D
:1018F000B0008F7D8093B000F0E0EE0FFF1FE35249
:10190000FD4EA591B4918FB7F894EC91611103C08D
:1019100020952E2301C02E2B2C938FBF0895CF939B
:10192000DF9390E0FC01EB5FFC4E2491FC01EF5053
:10193000FD4E8491882361F190E0880F991FFC018E
:10194000EB57FF4FC591D491FC01E352FD4EA59199
:10195000B491611109C09FB7F894888120958223C2
:101960008883EC912E230BC0623061F49FB7F8940A
:101970003881822F809583238883EC912E2B2C93A2
:101980009FBF06C08FB7F894E8812E2B28838FBFA6
:10199000DF91CF9108958F929F92AF92BF92CF9295
:1019A000DF92EF92FF926B017C010E94070B4B01CB
:1019B0005C01C114D104E104F104F1F00E94070BB1
:1019C000DC01CB0188199909AA09BB09883E93401B
:1019D000A105B10570F321E0C21AD108E108F108B0
:1019E00088EE880E83E0981EA11CB11CC114D1049E
:1019F000E104F10419F7DDCFFF90EF90DF90CF9075
:101A0000BF90AF909F908F9008951F920F920FB646
:101A10000F9211242F933F938F939F93AF93BF9374
:101A20008091DF029091E002A091E102B091E20288
:101A30003091DE0223E0230F2D3720F40196A11D03
:101A4000B11D05C026E8230F0296A11DB11D2093EC
:101A5000DE028093DF029093E002A093E102B09354
:101A6000E2028091E3029091E402A091E502B0913C
:101A7000E6020196A11DB11D8093E3029093E4025A
:101A8000A093E502B093E602BF91AF919F918F9131
:101A90003F912F910F900FBE0F901F9018951F929E
:101AA0000F920FB60F9211242F933F934F935F9392
:101AB0006F937F938F939F93AF93BF93EF93FF9316
:101AC0008091B900887F803609F49CC068F588321F
:101AD00009F45BC090F4803109F454C038F48823D1
:101AE00009F4F6C0883009F44DC0F6C0883109F415
:101AF0004CC0803209F45DC0EFC0803409F468C086
:101B000048F4803309F455C0883309F0E5C0809368
:101B10000B03D8C0803509F44FC0883509F45DC087
:101B2000883409F0D9C0D6C0883909F4C7C0A8F4F0
:101B3000883709F467C038F4883609F463C0803701
:101B400009F460C0C9C0883809F4B8C0803909F404
:101B50005FC0803809F0C0C05BC0803B09F486C01C
:101B600038F4803A09F466C0883A09F47FC0B4C0FA
:101B7000803C09F4A7C0883C09F4A4C0883B09F460
:101B80008AC0AAC08091E80210C090910A03809197
:101B90000903981770F5E0910A0381E08E0F809396
:101BA0000A03F0E0E751FD4F80818093BB0085EC94
:101BB00086C080930B038EC0E0910A0381E08E0FF4
:101BC00080930A038091BB00F0E0E751FD4F8083D2
:101BD00090910A03809109036EC0E0910A0381E0AD
:101BE0008E0F80930A038091BB00F0E0E751FD4F18
:101BF000808380910C0381116DC081E08093E702A6
:101C000084EA61C083E080930D031092DD02CFCFA0
:101C10008091DD02803208F051C0E091DD0281E068
:101C20008E0F8093DD028091BB00F0E0E354FD4F06
:101C30008083BDCF85EC8093BC0010920D03809112
:101C4000DD02803230F4E091DD02F0E0E354FD4F3C
:101C500010826091DD0270E0E091BB02F091BC0265
:101C60008DEB92E009951092DD0236C084E08093FE
:101C70000D031092BA021092B902E091B702F091EE
:101C8000B80209958091B902811105C081E0809365
:101C9000B90210929702E091BA0281E08E0F809310
:101CA000BA02F0E0E956FD4F80818093BB0090912D
:101CB000BA028091B902981708F479CF85E8809329
:101CC000BC000AC085EC8093BC0010920D0304C0D8
:101CD00010920B030E942C0BFF91EF91BF91AF91DB
:101CE0009F918F917F916F915F914F913F912F9134
:101CF0000F900FBE0F901F90189520919502309174
:101D000096022817390779F0FC01138A2FB7F89447
:101D100010929402109293029093960280939502EF
:101D20002FBF81E0089580E0089520E001972FEF14
:101D30008F3F9207D9F70895DF92EF92FF920F93AA
:101D40001F93CF93DF93FC0121893289232BB1F1BB
:101D5000E62EEC010E947D0EDFB6F894E985FA8547
:101D60009081888580958923808389899A890596C1
:101D70000E94950E08E010E0FF24F394E985FA85AF
:101D800088859F2D9E2119F09081892B03C0908119
:101D900080958923808389899A890E94950EFF0CFA
:101DA0000150110959F7E985FA8590818885892BB9
:101DB0008083DFBE89899A890E94950E80E090E039
:101DC000DF91CF911F910F91FF90EF90DF900895D9
:101DD000CF92DF92EF92FF920F931F93CF93DF93F7
:101DE000EC017B016A018E8981110CC0CE01029643
:101DF0000E94BC1562E070E080E090E00E94CB0C95
:101E00008FEF8E8B87012296C8018E199F098C1542
:101E10009D053CF4F80161918F01CE010E949C0E5A
:101E2000F3CFDF91CF911F910F91FF90EF90DF9053
:101E3000CF900895FF920F931F93CF93DF93EC0100
:101E4000F62E8E898E010E5F1F4F81110BC0C801C7
:101E50000E94BC1562E070E080E090E00E94CB0C34
:101E60008FEF8E8B6F2DC801DF91CF911F910F9156
:101E7000FF900C949C0EEF92FF920F931F93CF93C1
:101E8000DF93C0919502D0919602209709F445C046
:101E9000EE81FF8190818D81892309F03EC08B8581
:101EA0009C850E94950E88E0E82EF12C10E001E060
:101EB0008D859E850E94950EEE81FF8190818D819A
:101EC000892311F0102B03C0802F80951823000F59
:101ED00081E0E81AF10861F78F8598890E94950ED4
:101EE000809194022091930290E001968F7399273C
:101EF00030E08217930779F0E0919402F0E0ED5A18
:101F0000FD4F10838091940290E001968F73992782
:101F10008093940202C081E08B8BDF91CF911F915F
:101F20000F91FF90EF9008951F920F920FB60F92AE
:101F300011242F933F934F935F936F937F938F93CE
:101F40009F93AF93BF93EF93FF930E943B0FFF913B
:101F5000EF91BF91AF919F918F917F916F915F9121
:101F60004F913F912F910F900FBE0F901F9018959A
:101F70001F920F920FB60F9211242F933F934F93FE
:101F80005F936F937F938F939F93AF93BF93EF93E1
:101F9000FF930E943B0FFF91EF91BF91AF919F91F3
:101FA0008F917F916F915F914F913F912F910F9002
:101FB0000FBE0F901F9018951F920F920FB60F92A1
:101FC00011242F933F934F935F936F937F938F933E
:101FD0009F93AF93BF93EF93FF930E943B0FFF91AB
:101FE000EF91BF91AF919F918F917F916F915F9191
:101FF0004F913F912F910F900FBE0F901F9018950A
:10200000EF92FF920F931F93CF93DF93CDB7DEB77D
:1020100062970FB6F894DEBF0FBECDBFEE24E394F7
:10202000F12C00E610E040E050E0B701C8010E944A
:10203000F4110F5F1F4F0F3E1105A9F78FEFE81A3C
:10204000F80A89E2E816F10461F7E0914A02F0919A
:102050004B02EE0FFF1FEB59F84F65917491CE01C3
:1020600001960E94261F00EE1FEF20E1AE014F5F98
:102070005F4F66E170E080E690E00E941012E09110
:102080004A02F0914B02F7FD379683E0F595E7950C
:102090008A95E1F7EE0FFF1FEB5BF84F65917491A6
:1020A000CE0101960E94261F00EE1FEF20E1AE0137
:1020B0004F5F5F4F62E070E080E690E00E94101298
:1020C00062960FB6F894DEBF0FBECDBFDF91CF9101
:1020D0001F910F91FF90EF9008958EBD00000DB4F9
:1020E00007FEFDCF8EB508957F928F929F92AF929B
:1020F000BF92CF92DF92EF92FF920F931F93CF93F5
:10210000DF93CDB7DEB72A970FB6F894DEBF0FBEC8
:10211000CDBF782ECE0101967C016E019BE0C90EE9
:10212000D11C57019E2C8F2C5C98872D0E946D101E
:1021300080E00E946D10082F10E0102F002780E033
:102140000E946D10082B5C9A94E0169507959A955D
:10215000E1F7D5010D931D935D01AC15BD0521F788
:1021600090E09F5F892FF70120813181E92DF82DC3
:10217000E80FF11DE80FF11D40815181421753070F
:1021800028F4D7014D935C93318320838F5F853092
:1021900051F7B2E0EB0EF11C943019F72D813E811E
:1021A0008B819C81820F931F2F813885820F931F13
:1021B00063E070E00E945C1DCB012A960FB6F89494
:1021C000DEBF0FBECDBFDF91CF911F910F91FF906A
:1021D000EF90DF90CF90BF90AF909F908F907F90C7
:1021E0000895662311F05F9A01C05F982A980E94B3
:1021F0006D102A9A0895CF93C62F60E00E94F110C7
:1022000061E08C2FCF910C94F1100F931F93CF931B
:10221000DF931F92CDB7DEB7182F062F692F82E00C
:1022200079830E94FB10612F83E00E94FB1079816B
:10223000672F86E00E94FB10602F87E00F90DF91F0
:10224000CF911F910F910C94FB10CF92DF92EF92E0
:10225000FF92CF93DF93EC0160E070E080E090E0CC
:102260000E94051160E082E20E94F1105F9A2A98B4
:10227000C12C8CE2D82EEE24E394F12C8D2F0E94F9
:102280006D108C2F0E946D1081E0C81AD108E108F2
:10229000F108A1F72A9ADF91CF91FF90EF90DF909C
:1022A000CF900895662311F05F9A01C05F982A9835
:1022B0000E946D102A9A0895CF93C62F60E00E9465
:1022C000521161E08C2FCF910C9452118F929F92FA
:1022D000AF92BF920F931F93CF93DF93CDB7DEB72B
:1022E000A1970FB6F894DEBF0FBECDBF19A2423042
:1022F00008F44AE08E010F5D1F4F842E912CA12C13
:10230000B12CA50194010E942D1FE62FB901CA012D
:1023100001501109EA3014F4E05D01C0E95CD80114
:10232000EC93232B242B252B61F70115110571F05C
:10233000F80101900020E9F73197AF01401B510BE4
:10234000B80189E493E00E94100A02C080E090E0A6
:10235000A1960FB6F894DEBF0FBECDBFDF91CF912F
:102360001F910F91BF90AF909F908F900895CF9243
:10237000DF92EF92FF92CF93DF936C01990FEE08FB
:10238000FF08F7FE1AC0E0914903F0914A0301905B
:10239000F081E02D6DE289E493E00995EC01662778
:1023A0007727CB016C197D098E099F094AE00E94AD
:1023B00066117C01EC0EFD1E06C04AE0C701B601A5
:1023C0000E9466117C0142E050E064E272E089E420
:1023D00093E00E94100A8E0D9F1DDF91CF91FF9018
:1023E000EF90DF90CF900895CF93DF93803F9105DA
:1023F000A0F4603421E0720780F4EA010E94051124
:1024000060E082E20E94F1105F9A2A988D2F0E946C
:102410006D108C2F0E946D102A9ADF91CF91089534
:102420002F923F924F925F926F927F928F929F92E4
:10243000AF92BF92CF92DF92EF92FF920F931F93D2
:10244000CF93DF93CDB7DEB72E970FB6F894DEBFEC
:102450000FBECDBF7C017E876D871C830B83222E30
:102460002694312C80EF90E0BC01621973097A83C5
:1024700069832A01A22EB12C80E491E0FC01EA19C3
:10248000FB09FA87E987F2018081882309F483C078
:1024900049815A814E155F05C0F46D857E856A0DB0
:1024A0007B1D7E876D8789859A858617970758F4E7
:1024B00080E090E02C870E9425111E861D86E12C6D
:1024C000F12C2C8502C0E12CF12CF20181912F011D
:1024D000F0EFEF16F10409F45BC04D855E854034E2
:1024E000514008F055C070E1879FA0011124ECE035
:1024F0008E9FC001112430E00D851E854701C12C3F
:10250000D12CBA0172507E836D83FC01E058F140FA
:10251000F887EF83CA14DB04D9F12C3039F4EF814A
:10252000F885EC0DFD1DE759F14F08C0203139F455
:10253000ED81FE81EC0DFD1DE758F74F3491380118
:10254000F8E06F0E711C37FF0AC04B815C81B80147
:10255000C4012C873B870E94F4113B852C85330FE7
:102560000F5F1F4FC8014D855E85841B950B8A1533
:102570009B0531F45FEF851A950A6D847E8403C054
:102580000615170501F76FEFC61AD60A8301C2CFE9
:10259000E20CF31C78CF2E960FB6F894DEBF0FBE78
:1025A000CDBFDF91CF911F910F91FF90EF90DF9002
:1025B000CF90BF90AF909F908F907F906F905F90E3
:1025C0004F903F902F9008954F925F926F927F921D
:1025D0008F929F92AF92BF92CF92DF92EF92FF9233
:1025E0000F931F93CF93DF936C01EB0129017C01C3
:1025F000E40EF51E470120EFE216F10418F08FEE0D
:10260000882E912C80EFC816D10440F05E01A40CF6
:10261000B51C20EFC216D10490F023C0C03481E075
:10262000D807A0F75601A814B90480F7A801BE0185
:10263000C5010E94F4112FEFA21AB20AF4CF80E470
:10264000A81681E0B80660F536016814790440F5F3
:10265000A801B501C3010E94F4112FEF621A720A9A
:10266000F4CF80EFE816F104C0F5C03481E0D8075C
:10267000A0F52FEF421A520A4C0E5D1EC20120E453
:10268000421621E0520610F08FE391E0C817D907F7
:1026900020F5A801BE01C7010E94F4112196EECFDA
:1026A000C03481E0D807C8F44E01C50120E4A21669
:1026B00021E0B20610F08FE391E08816990648F405
:1026C000A801B401C6010E94F4112FEF821A920AE8
:1026D000ECCF20EFE216F10460F2DF91CF911F9171
:1026E0000F91FF90EF90DF90CF90BF90AF909F90B1
:1026F0008F907F906F905F904F9008956F927F9230
:102700008F929F92AF92BF92CF92DF92EF92FF9201
:102710000F931F93CF93DF93CDB7DEB7A0970FB67C
:10272000F894DEBF0FBECDBF3B014A01590120E145
:10273000E4E5F1E0DE01519601900D922A95E1F772
:1027400020E1E4E6F1E0DE01119601900D922A9578
:10275000E1F70197FC01EE0FFF1F41E050E04C0F45
:102760005D1FE40FF51FE080F180C088D18850EF35
:10277000C516D10470F480E4E81681E0F80648F448
:10278000850126E230E046E750E0B701C6010E942D
:10279000E4122CEFA3012403C001259F900D112406
:1027A0008C01055C1F4FC8010E94B711C3010E9434
:1027B000B711C601800F911F803F910560F4B701EA
:1027C000655F7F4F603451E0750728F4850120E193
:1027D000A4010E941012A0960FB6F894DEBF0FBE9F
:1027E000CDBFDF91CF911F910F91FF90EF90DF90C0
:1027F000CF90BF90AF909F908F907F906F900895F3
:10280000E9E4F3E0A089B18982E08C93A485B585E1
:102810001C92A685B7858FEC8C93108EA489B58900
:1028200086E08C93A289B3898C9180618C93A28974
:10283000B3898C9188608C93A289B3898C918068CC
:102840008C930288F389E02D80818F7D80830895A9
:102850002091310390913003213208F04AC08091D9
:102860000D038111FCCF32E030930D0331E0309342
:102870000C033FEF30930B0310920A0320930903DC
:10288000A0E1B3E049EE52E0FA013E2F341B3217CB
:1028900018F43D913193F9CF1092E8022091E802AB
:1028A000990F922B9093E8029091E702913061F496
:1028B0001092E7029091E8029093BB009091BC00C7
:1028C00093FDF8CF95EC01C095EE9093BC009091EC
:1028D0000D039230E1F390910B039F3F79F08091CB
:1028E0000B03803241F080910B03803331F084E0A0
:1028F00005C081E003C082E001C083E010920F03B5
:102900001092310310920E030895CF92DF92EF924E
:10291000FF920F931F93CF93DF9310E001E080911C
:102920000204181780F5E12FF0E0EE0FFF1FEE50C4
:10293000FC4FC081D181209721F18C8D00930E0333
:102940008093300310920F031092310360E086EE03
:1029500093E00E94BA0B7E0180E1E80EF11C6E014B
:10296000688186EE93E00E94BA0B2296F60161819F
:1029700086EE93E00E94BA0BCE15DF0581F70E9428
:1029800028141F5FCCCFDF91CF911F910F91FF9043
:10299000EF90DF90CF900895CF93DF9387FD30C005
:1029A000C82FC295CF7090910204C91748F58F7057
:1029B000E82FF0E0E754FC4EE491D0E0CC0FDD1FAF
:1029C000CE50DC4FAE2FB0E094E0B595A7959A9528
:1029D000E1F7AA0FBB1F88819981A80FB91FEF707B
:1029E00081E090E002C0880F991FEA95E2F7809598
:1029F00090952D913C911197822393238D939C93D5
:102A0000DF91CF91089587FD28C0A82FA295AF70C0
:102A100090910204A91708F58F70E82FF0E0E755B0
:102A2000FC4EE491B0E0AA0FBB1FAE50BC4F8D919D
:102A30009C91AE2FB0E024E0B595A7952A95E1F7DB
:102A4000A80FB91F56968C9190E0EF7002C0959533
:102A50008795EA95E2F78170089580E0089587FDF3
:102A600028C0A82FA295AF7090910204A91708F56D
:102A70008F70E82FF0E0E755FC4EE491B0E0AA0F2C
:102A8000BB1FAE50BC4F8D919C91AE2FB0E024E0A7
:102A9000B595A7952A95E1F7A80FB91F50968C9187
:102AA00090E0EF7002C095958795EA95E2F7817006
:102AB000089580E00895CF93DF9387FD2EC0C82F3F
:102AC000C295CF7090910204C91738F58F70E82F26
:102AD000F0E0E754FC4EE491D0E0CC0FDD1FCE5087
:102AE000DC4FAE2FB0E094E0B595A7959A95E1F74D
:102AF000AA0FBB1F88819981A80FB91FEF7081E0D1
:102B000090E002C0880F991FEA95E2F72D913C9161
:102B10001197822B932B8D939C93DF91CF910895E6
:102B2000682F86EE93E00C94BA0B1F93CF93DF933C
:102B300000D01F92CDB7DEB7182F19821A821B82E0
:102B400081EB898343E050E0BE016F5F7F4F83E0FC
:102B500094E00E94E80E61EC83E094E00E941A0F7A
:102B6000612F83E094E00E941A0F0F900F900F9056
:102B7000DF91CF911F910895CF93DF93EC011A8AD3
:102B8000198A188A1F861E861D8689E193E120E036
:102B900030E0FC01459155916591749142315A475D
:102BA0006105710519F54CE0429FC001439F900DEE
:102BB0001124FC01E35EFC4E259134913C872B8768
:102BC000FC01E15EFC4E259134913E872D87FC018E
:102BD000EF5DFC4E25913491388B2F87FC01ED5D24
:102BE000FC4E859194919A8B898B09C02F5F3F4F42
:102BF0000C962C30310509F0CCCF1C861B868F85B6
:102C00009889892B09F443C08C81883098F480918D
:102C1000680084608093680020916D0081E090E0FE
:102C20000C8002C0880F991F0A94E2F7822B8093D0
:102C30006D0029C08E3098F4809168008160809387
:102C4000680030916B002C81285081E090E001C039
:102C5000880F2A95EAF7832B80936B0014C0863186
:102C600090F48091680082608093680030916C00DD
:102C70002C812E5081E090E001C0880F2A95EAF760
:102C8000832B80936C0089899A890E94950ECE01CE
:102C9000DF91CF910C947D0ECF93DF93CDB7DEB74C
:102CA0002A970FB6F894DEBF0FBECDBF789484B5D7
:102CB000826084BD84B5816084BD85B5826085BD38
:102CC00085B5816085BD80916E00816080936E00C6
:102CD00010928100809181008260809381008091B8
:102CE0008100816080938100809180008160809369
:102CF00080008091B10084608093B1008091B00029
:102D000081608093B00080917A00846080937A0023
:102D100080917A00826080937A0080917A0081604D
:102D200080937A0080917A00806880937A00109274
:102D3000C100559A5D9A0E9400148CB58C608CBDC0
:102D40008CB58F7D8CBD8CB58C7F8CBD8DB58E7F09
:102D50008DBD1FB7F89480914C02811127C0EBEF15
:102D6000F2E18491EFE0F3E19491E82FF0E0EE0FCF
:102D7000FF1FEB57FF4FA591B491EC91E92321F48C
:102D800061E08AE00E94430C61E08AE00E948F0CBF
:102D90008CB580618CBD8CB580648CBD61E08DE0AC
:102DA0000E948F0C61E08BE00E948F0C80914C029E
:102DB0008F5F80934C021FBF0E9400146FEF83E06F
:102DC00094E00E941A0F9E012F5F3F4F690187E038
:102DD000F90111928A95E9F785E68A8384E68C8366
:102DE00086E08E8380EB898384E08F8347E050E028
:102DF000B90183E094E00E94E80E80914A020E94AB
:102E0000951580E7898381E78A8382E78B8383E74F
:102E10008C8384E78D8385E78E8386E78F8387E7BE
:102E20008887A12CBB24B39458E4952E65E4862EA4
:102E300080910204A81608F079C08A2D90E0FC0168
:102E4000EE0FFF1FEE50FC4F00811181011511059F
:102E500009F46AC0F601E80FF91F8081F801848F38
:102E6000109229021092280210920F03109231033F
:102E700010920D03B0920C031092E70261E082E120
:102E80000E94430C61E083E10E94430C8091B900F1
:102E90008E7F8093B9008091B9008D7F8093B900B7
:102EA0009092B8008092BC00F801848DB0920E031D
:102EB0008093300310920F031092310381E290E06F
:102EC0000E9490150E942814F801848DB0920E0380
:102ED0008093300310920F031092310381E890E049
:102EE0000E9490150E942814F801848DB0920E0360
:102EF0008093300310920F03109231038FEE90E015
:102F00000E9490150E942814F801848DB0920E033F
:102F10008093300310920F031092310381EA90E006
:102F20000E9490150E942814A39482CF00E010E024
:102F3000A12CB12CC8018E7FFC01EC5FFE4F4F012C
:102F40000131110564F4F401808181509A2D990FAB
:102F5000990F890F0E945B150E94851408C0A0FC80
:102F600002C061E001C060E083E00E94430C64E1C4
:102F700070E080E090E00E94CB0CFFEFAF1ABF0A38
:102F800024E0A216B104E1F60F5F1F4F04311105D2
:102F900079F610E0812F0E94CC1480E1810F0E940D
:102FA000CC140E94851468E270E080E090E00E94FA
:102FB000CB0C1F5F103171F7579A5F9A229A2A9AA9
:102FC000219A299860E08AEE0E94FB1060E28BEE65
:102FD0000E94FB106CE08CEE0E94FB1064EC8DEE06
:102FE0000E94FB1068E388EE0E94FB1060E189EE0E
:102FF0000E94FB1061E081EF0E94FB1060E182EF14
:103000000E94FB1061E080E40E94FB1060E081E41C
:103010000E94FB1060E082E40E94FB1060E183E408
:103020000E94FB106EE084E40E94FB1064E285E4E1
:103030000E94FB1064E086E40E94FB1060E587E4D8
:103040000E94FB1062E088E40E94FB1063E189E4C7
:103050000E94FB1069E18AE40E94FB1069E18BE4A5
:103060000E94FB1066E18CE40E94FB106BE180E59E
:103070000E94FB1061E381E50E94FB106FE282E594
:103080000E94FB106FE383E50E94FB106FE384E571
:103090000E94FB106EE385E50E94FB106FE286E55F
:1030A0000E94FB106BE787E50E94FB1069E088E552
:1030B0000E94FB1066E089E50E94FB1066E08AE54D
:1030C0000E94FB106CE08BE50E94FB106DE18CE52B
:1030D0000E94FB106CEC8DE50E94FB106BE18BE114
:1030E0000E94FB1061E08AE10E94FB106FE284E223
:1030F0000E94FB1067E585E20E94FB1068E883E20E
:103100000E94FB1064E388E10E94FB1061E089E10A
:103110000E94FB1060E081E00E94FB1068E88FE1F4
:103120000E94FB1065E070E080E090E00E94CB0C14
:1031300060E88FE10E94FB1065E070E080E090E0C5
:103140000E94CB0C60E98FE10E94FB1065E070E00B
:1031500080E090E00E94CB0C60ED8FE10E94FB10BC
:1031600065E070E080E090E00E94CB0C65E087E1D4
:103170000E94FB1060E086E30E94FB1068E388E297
:103180000E94FB1068E270E080E090E00E94CB0CAF
:103190006FE388E20E94FB1068E186E10E94FB1069
:1031A00060E082E00E94FB1060E083E00E94FB1080
:1031B00060E084E00E94FB106FEE85E00E94FB104F
:1031C00060E086E00E94FB1060E087E00E94FB1058
:1031D00061E088E00E94FB106FE389E00E94FB1031
:1031E0008FEF9FEF0E942511299A549A5C9A539869
:1031F0005B9A80ED0E94741080E90E94741089E24D
:103200009CE5AFE0BEEB8093400390934103A09315
:103210004203B093430384E091E090933D03809395
:103220003C038CEE91E5A8E3BEEB809344039093BE
:103230004503A0934603B09347038EE591E0909336
:103240003F0380933E0360E082E00E945C1160E0F7
:1032500083E00E945C1160E086E00E945C1160E007
:1032600087E00E945C1160E082E20E9452115F9A46
:103270002A98812C3CE2932EAA24A394B12C80E0BE
:103280000E946D1080E00E946D10F1E08F1A91088D
:10329000A108B108A1F72A9A00EE1FEF2FE930E04C
:1032A0004FEE50E060E070E080E090E00E94E412B9
:1032B00020E144EA51E062E070E082E090E00E94A8
:1032C000101220E140EB51E066E170E082E090E016
:1032D0000E94101294E1292E91E0392E26E4A22EAC
:1032E000B12C00EE1FEF2CE04CEB51E0450135E036
:1032F000830E911CB4018AE090E00E9410122CE031
:1033000047EC51E0B40182E090E00E941012412CA1
:10331000512C0BE4802E912C8BE4682E712CC5016E
:1033200002969A8789870FEF1FEF24E130E044E18E
:1033300050E0B501C3010E94E412F101E40DF51D56
:10334000808191816CE070E00E94701DFC01EE0FA5
:10335000FF1FE157FF4F65917491C6010E94261F20
:1033600000EE1FEF20E1A60169857A85C301029670
:103370000E94101224E1820E911C3BEE83169104F0
:1033800061F0340198E8891691041CF0E2E06E0EB9
:10339000711CF2E04F0E511CC6CF84E1A80EB11C87
:1033A00090E1290E311CE6E9AE16B10409F099CF7F
:1033B00020E149EC51E062E070E080E690E00E949C
:1033C000101220E140ED51E066E170E080E690E00F
:1033D0000E94101220EE37E041EE51E067E070E00D
:1033E00081E090E00E947E132FEF37E049EE51E03C
:1033F00069E070E082E090E00E947E1320EE37E00A
:1034000043EF51E069E070E083E090E00E947E13BA
:103410002FEF37E04DEF51E06BE070E084E090E09B
:103420000E947E132FEF3FEF49E052E069E070E029
:1034300085E090E00E947E1320EE3FEF43E152E0F2
:1034400064E070E086E090E00E947E132FEF3FEF93
:1034500048E152E06BE070E087E090E00E947E136C
:103460000E940010109252021092510211E064E189
:1034700070E080E090E00E94CB0C712C00E0B5EC95
:103480006B2E80910204781608F094C0E72DF0E0CE
:10349000EE0FFF1FEE50FC4FA080B180A114B104CD
:1034A00009F486C0002311F001E082C02501F6E195
:1034B0004F0E511C450120E1820E911CF401D201F6
:1034C00086E001900D928A95E1F7F501848D1093C5
:1034D0000E038093300310920F031092310380E4A7
:1034E00090E00E9490150E942814F501848D90911F
:1034F0000D039111FCCF10930D0310930C03FFEFFC
:10350000F0930B0310920A0325E020930903109314
:10351000E8029091E802880F892B8093E80280915D
:10352000E702813069F41092E7028091E80280930B
:10353000BB008091BC0083FDF8CF6092BC0003C04B
:1035400035EE3093BC0080910D038130E1F3809122
:103550000A03863018F480910A0301C086E0A9EEC0
:10356000B2E0EAE2F2E09E2F2AE232E0921B9817E4
:1035700018F49D919193F7CF10922902809328021D
:10358000120186EE93E00E946E0BF40181934F01CD
:10359000E415F505B1F7FCE1AF0EB11CF101919115
:1035A0001F013797808198137FCF2A143B04B1F70E
:1035B000739467CF002309F447C044E1A42E41E08F
:1035C000B42E00E051E9952E6FE7862E71E8772E34
:1035D000802F0E942F15682E802F0E9403158615BC
:1035E00080F4802F0E945B15F50180818C509982B8
:1035F0008A838B8243E050E0B60183E094E00E942E
:10360000E80E802F0E942F15682E802F0E94031530
:10361000681690F4802F0E94CC14F50180818C50A4
:1036200019821A821B8279828A8343E050E0B601B4
:1036300083E094E00E94E80E0F5FF2E0AF0EB11C51
:10364000003231F60E9485144B99A2C080ED0E9491
:1036500074103C0180E90E9474105C0180ED0E94AE
:1036600074102C0180E90E9474104C0164147504DC
:1036700028F0C201C2966816790650F04614570425
:1036800008F46EC0C301C2964816590608F068C017
:10369000A814B90428F0C401C296A816B90650F0BF
:1036A0008A149B0408F45CC0C501C296881699066A
:1036B00008F056C0B201660D771D7695679580E0DB
:1036C00090E00E94261E20914003309141034091DA
:1036D0004203509143030E94B41E2B013C016091B0
:1036E0003C0370913D03072E000C880B990B0E9440
:1036F000281E9B01AC01C301B2010E948B1D0E94D8
:10370000F71D7093370360933603B4016A0D7B1D78
:103710007695679580E090E00E94261E20914403F4
:103720003091450340914603509147030E94B41ED7
:103730004B015C0160913E0370913F03072E000C2A
:10374000880B990B0E94281E9B01AC01C501B40196
:103750000E948B1D0E94F71D7093390360933803FC
:1037600080913A0387FD2EC080EC80933A038091CC
:103770003603909137039093330380933203809103
:1037800038039091390390933503809334031AC022
:1037900080913A0387FF04C08F7780933A0312C069
:1037A00010923303109232031092350310923403B7
:1037B0008FEF9FEF909337038093360390933903F5
:1037C0008093380380913A0387FF2FC0809138039C
:1037D000909139039C01205A31092F39310538F570
:1037E0002091360330913703A901415051094737E1
:1037F000510558F468E270E00E945C1D7B01EE0CFC
:10380000FF1C27E0E21AF10812C0295731092737B7
:10381000310568F468E270E00E945C1D7B01EE0CEB
:10382000FF1C36E0E31AF10802C0E12CF12CF09203
:103830005202E0925102E114F10409F452C0F092F4
:103840005002E0924F0280914D0290914E02E81694
:10385000F90609F44AC0F0924E02E0924D0282E06D
:10386000E816F10449F480914A0290914B028F3797
:103870009105DCF501962AC094E0E916F10449F4BB
:1038800080914A0290914B021816190674F501971F
:103890001DC0E3E0EE16F10451F480914A029091CC
:1038A0004B02883091050CF1887F08970FC0F1E03A
:1038B000EF16F104D1F480914A0290914B028837BF
:1038C00091059CF497FD0796887F089690934B028C
:1038D00080934A020E94001080914A020E9495152E
:1038E00004C010924E0210924D020E94FD0ABFCDFC
:1038F00010924C0310924B0388EE93E0A0E0B0E0EE
:1039000080934D0390934E03A0934F03B0935003C5
:1039100028E731E030934A032093490325EC30E057
:10392000309356032093550324EC30E03093580332
:103930002093570320EC30E030935A03209359032F
:1039400021EC30E030935C0320935B0322EC30E009
:1039500030935E0320935D0326EC30E030936003E8
:1039600020935F031092620310926303109264032A
:10397000109265031092E9031092E8038093EA0322
:103980009093EB03A093EC03B093ED0388E891E0F0
:103990009093E7038093E60380EA91E09093040418
:1039A00080930304109208041092070488E991E0C0
:1039B0009093060480930504109211041092100451
:1039C0001092130410921204109215041092140411
:1039D00010921704109216041092180461E082E00D
:1039E0000E948F0C61E082E00E94430CE7E0F3E16B
:1039F000E491E0930D04E3EFF2E1E491F0E0EE0FE7
:103A0000FF1FE352FD4E8591949190930F04809394
:103A10000E0460E08FEF0E948F0C61E08FEF0E9438
:103A2000430C8FEF80930904E4E0F4E1E491E09328
:103A30000A04E0EFF3E1E491F0E0EE0FFF1FE9513B
:103A4000FD4E8591949190930C0480930B041092F9
:103A5000190487E394E09093F3038093F2038AE1DF
:103A600094E09093F5038093F4031092F70310927F
:103A7000F6031092F9031092F8031092FB031092D0
:103A8000FA031092FD031092FC031092FF031092B0
:103A9000FE03109201041092000410920204E2EF5F
:103AA000F3E080E021913191232B19F08F5F883072
:103AB000C9F7809302040895AA1BBB1B51E107C0FC
:103AC000AA1FBB1FA617B70710F0A61BB70B881FAE
:103AD000991F5A95A9F780959095BC01CD0108953D
:103AE00097FB072E16F4009407D077FD09D00E94AB
:103AF0005C1D07FC05D03EF4909581959F4F08957D
:103B0000709561957F4F0895EE0FFF1F0590F4911A
:103B1000E02D09945058BB27AA270E94A21D0C949F
:103B20007A1E0E946C1E38F00E94731E20F039F439
:103B30009F3F19F426F40C94691E0EF4E095E7FB00
:103B40000C94631EE92F0E948B1E58F3BA1762076C
:103B500073078407950720F079F4A6F50C94AD1E41
:103B60000EF4E0950B2EBA2FA02D0B01B901900198
:103B70000C01CA01A0011124FF27591B99F0593FDC
:103B800050F4503E68F11A16F040A22F232F342F24
:103B90004427585FF3CF469537952795A795F04072
:103BA0005395C9F77EF41F16BA0B620B730B840B87
:103BB000BAF09150A1F0FF0FBB1F661F771F881F3F
:103BC000C2F70EC0BA0F621F731F841F48F4879597
:103BD00077956795B795F7959E3F08F0B0CF939589
:103BE000880F08F09927EE0F9795879508950E9402
:103BF000931E88F09F5798F0B92F9927B751B0F0CE
:103C0000E1F0660F771F881F991F1AF0BA95C9F760
:103C100014C0B13091F00E94AD1EB1E008950C9433
:103C2000AD1E672F782F8827B85F39F0B93FCCF3E6
:103C3000869577956795B395D9F73EF490958095DD
:103C4000709561957F4F8F4F9F4F0895E89409C0FD
:103C500097FB3EF490958095709561957F4F8F4FBF
:103C60009F4F9923A9F0F92F96E9BB279395F695D5
:103C7000879577956795B795F111F8CFFAF4BB0F53
:103C800011F460FF1BC06F5F7F4F8F4F9F4F16C0B7
:103C9000882311F096E911C0772321F09EE8872F41
:103CA000762F05C0662371F096E8862F70E060E0FD
:103CB0002AF09A95660F771F881FDAF7880F969576
:103CC000879597F9089597F99F6780E870E060E01D
:103CD00008959FEF80EC089500240A9416161706A5
:103CE00018060906089500240A94121613061406ED
:103CF00005060895092E0394000C11F4882352F050
:103D0000BB0F40F4BF2B11F460FF04C06F5F7F4F07
:103D10008F4F9F4F089557FD9058440F551F59F0EE
:103D20005F3F71F04795880F97FB991F61F09F3FA8
:103D300079F087950895121613061406551FF2CFD1
:103D40004695F1DF08C0161617061806991FF1CF21
:103D500086957105610508940895E894BB27662748
:103D60007727CB0197F908950E94C71E0C947A1EFD
:103D70000E946C1E38F00E94731E20F0952311F0F3
:103D80000C94631E0C94691E11240C94AE1E0E94A8
:103D90008B1E70F3959FC1F3950F50E0551F629FE6
:103DA000F001729FBB27F00DB11D639FAA27F00D94
:103DB000B11DAA1F649F6627B00DA11D661F829FBB
:103DC0002227B00DA11D621F739FB00DA11D621FA0
:103DD000839FA00D611D221F749F3327A00D611DBD
:103DE000231F849F600D211D822F762F6A2F11249F
:103DF0009F5750409AF0F1F088234AF0EE0FFF1FD2
:103E0000BB1F661F771F881F91505040A9F79E3F28
:103E1000510580F00C94631E0C94AE1E5F3FE4F3DA
:103E2000983ED4F3869577956795B795F795E7957E
:103E30009F5FC1F7FE2B880F911D9695879597F987
:103E4000089581E090E0F8940C944F1FFB01DC0191
:103E500005900D920020E1F70895A1E21A2EAA1B09
:103E6000BB1BFD010DC0AA1FBB1FEE1FFF1FA2172A
:103E7000B307E407F50720F0A21BB30BE40BF50B27
:103E8000661F771F881F991F1A9469F760957095B0
:103E9000809590959B01AC01BD01CF010895F894E8
:023EA000FFCF52
:103EA20001000000040003000200010014001300DE
:103EB20012001100290028002600240030002F00E3
:103EC2002D002B0037003500340032003E003C004C
:103ED2003B003900410040003E003C0048004700E2
:103EE200450043004F004D004C004A00560054006C
:103EF20053005100000078000000780000007800B4
:103F020000007800A100A100C900C900F100F10081
:103F12001901190100000000940A100A5D0A3B0A07
:103F22004F0ADB0A00000000BA0B8A0B820B6E0BF1
:103F32005F0B5E0B000000009C0E100A00000000E8
:103F42001A0FE80E76312E31202042414E4B3A00B4
:103F5200494E535452554D454E543A00496E73746E
:103F620072756D656E74002B005069616E6F73001F
:103F720031323334353637383930313233343536FD
:103F82000042414E4B20555000494E5354522E2070
:103F920055500042414E4B20444F574E00494E531C
:103FA20054522E20444F574E00564F4C554D4520EB
:103FB2005550004D454E5500564F4C554D452044E9
:083FC2004F574E000D0A0000EC
:107E0000112484B714BE81FFF0D085E080938100F7
:107E100082E08093C00088E18093C10086E0809377
:107E2000C20080E18093C4008EE0C9D0259A86E02C
:107E300020E33CEF91E0309385002093840096BBD3
:107E4000B09BFECF1D9AA8958150A9F7CC24DD24C4
:107E500088248394B5E0AB2EA1E19A2EF3E0BF2EE7
:107E6000A2D0813461F49FD0082FAFD0023811F036
:107E7000013811F484E001C083E08DD089C08234E0
:107E800011F484E103C0853419F485E0A6D080C0E4
:107E9000853579F488D0E82EFF2485D0082F10E0AE
:107EA000102F00270E291F29000F111F8ED06801E7
:107EB0006FC0863521F484E090D080E0DECF843638
:107EC00009F040C070D06FD0082F6DD080E0C81688
:107ED00080E7D80618F4F601B7BEE895C0E0D1E017
:107EE00062D089930C17E1F7F0E0CF16F0E7DF06D8
:107EF00018F0F601B7BEE89568D007B600FCFDCFD4
:107F0000A601A0E0B1E02C9130E011968C91119780
:107F100090E0982F8827822B932B1296FA010C0160
:107F200087BEE89511244E5F5F4FF1E0A038BF0790
:107F300051F7F601A7BEE89507B600FCFDCF97BE46
:107F4000E89526C08437B1F42ED02DD0F82E2BD052
:107F50003CD0F601EF2C8F010F5F1F4F84911BD097
:107F6000EA94F801C1F70894C11CD11CFA94CF0C13
:107F7000D11C0EC0853739F428D08EE10CD085E9AC
:107F80000AD08FE07ACF813511F488E018D01DD067
:107F900080E101D065CF982F8091C00085FFFCCF94
:107FA0009093C60008958091C00087FFFCCF809118
:107FB000C00084FD01C0A8958091C6000895E0E648
:107FC000F0E098E1908380830895EDDF803219F02E
:107FD00088E0F5DFFFCF84E1DECF1F93182FE3DFCA
:107FE0001150E9F7F2DF1F91089580E0E8DFEE27F6
:047FF000FF270994CA
:027FFE00040479
:0400000300007E007B
:00000001FF
