:100000000C94990A0C94CA0A0C94CA0A0C94CA0A51
:100010000C94CA0A0C94CA0A0C94CA0A0C94CA0A10
:100020000C94CA0A0C94870C0C94600C0C94390C38
:100030000C94CA0A0C94CA0A0C94CA0A0C94CA0AF0
:100040000C94CA0A0C94CA0A0C94CA0A0C94CA0AE0
:100050000C94CA0A0C94CA0A0C94CA0A0C94531B36
:100060000C94CA0A0C94201A0C94F7190C94CA0A1E
:100070000C94CA0A0C94CA0A0C94CA0A0C94CA0AB0
:100080000C94CA0A0C94CA0A0C94CA0A0C94CA0AA0
:100090000C94CA0A0C94CA0A0C94CA0A0C949D1BAC
:1000A0000C94CA0A0C94CA0A0C94CA0A0C94CA0A80
:1000B0000C94CA0A0C94CA0A0C94CA0A0C94CA0A70
:1000C0000C94CA0A0C94CA0A0C94CA0A0C94CA0A60
:1000D0000C94CA0A0C94CA0A0C94CA0A0C94CA0A50
:1000E0000C94CA0A851A881A771A7B1A7F1ABF1AC3
:1000F0008C1A901A961A9A1A9E1AA41AA81AAC1A4E
:10010000BF1AB21AB61ABA1A420041230041004778
:1001100023004700462300460045004423004400D6
:100120004323004300536F756E6420656666656304
:1001300074730050657263757373697665730045F7
:1001400074686E6963730053796E746820456666DF
:10015000656374730053796E746820506164730032
:1001600053796E7468204C656164730050697065E2
:100170007300526565647300427261736573004574
:100180006E73656D626C657300537472696E67732C
:100190000042617365730047756974617273004F43
:1001A0007267616E730043682E20506572637573C9
:1001B00073696F6E73005069616E6F730047756E7F
:1001C00073686F74004170706C6175736500486589
:1001D0006C69636F707465720054656C6570686FEC
:1001E0006E652052696E67004269726420547765BB
:1001F00065740053656173686F7265004272656172
:100200007468204E6F6973650047742E20467265CE
:1002100074204E6F69736500526576657273652050
:1002200043796D62616C0053796E74682044727515
:100230006D004D656C6F64696320546F6D0054618F
:10024000696B6F204472756D00576F6F64626C6FDD
:10025000636B00537465656C204472756D73004167
:10026000676F676F0054696E6B6C652042656C6CDC
:10027000005368616E616900466964646C650042A0
:10028000616770697065004B616C696D6261004BFC
:100290006F746F005368616D6973656E0042616EC3
:1002A0006A6F005369746172004658202D205363B1
:1002B000692D6669004658202D204563686F657377
:1002C000004658202D20476F626C696E73004658B7
:1002D000202D204272696768746E657373004658FA
:1002E000202D2041746D6F737068657265004658EB
:1002F000202D204372797374616C004658202D20A4
:10030000536F756E64747261636B004658202D20C4
:100310005261696E00506164202D205377656570CD
:1003200000506164202D2048616C6F005061642092
:100330002D204D6574616C6C696300506164202DE3
:1003400020426F77656400506164202D2043686F00
:10035000697200506164202D20506F6C7973796E42
:10036000746800506164202D205761726D005061E7
:1003700064202D204E657720416765004C656164DF
:10038000202D20426173732F4C656164004C6561C0
:1003900064202D20466966746873004C6561642092
:1003A0002D20566F696365004C656164202D2043E4
:1003B000686172616E67004C656164202D2043683E
:1003C000696666004C656164202D2043616C6C6930
:1003D0006F7065004C656164202D20536177746FE8
:1003E0006F7468004C656164202D205371756172D3
:1003F00065004F636172696E610057686973746C60
:1004000065005368616B75686163686900426C6F71
:10041000776E20626F74746C650050616E20466C5C
:10042000757465005265636F7264657200466C7521
:10043000746500506963636F6C6F00436C6172692F
:100440006E657400426173736F6F6E00456E676C0A
:1004500069736820486F726E004F626F6500426179
:100460007269746F6E65205361780054656E6F72A7
:100470002053617800416C746F2053617800536F92
:100480007072616E6F205361780053796E746820CA
:10049000427261737320320053796E746820427225
:1004A000617373203100427261737320536563740A
:1004B000696F6E004672656E636820486F726E00E9
:1004C0004D75746564205472756D70657400547553
:1004D00062610054726F6D626F6E65005472756D6B
:1004E000706574004F726368657374726120486947
:1004F000740053796E74682043686F697200566F98
:10050000696365204F6F68730043686F69722041AB
:100510006168730053796E746820537472696E67F2
:100520007320320053796E746820537472696E6759
:1005300073203100537472696E6720456E732E20EC
:100540003200537472696E6720456E732E2031003D
:1005500054696D70616E69004F726368657374727F
:10056000616C20486172700050697A7A69632E204C
:10057000537472696E6773005472656D6F6C6F208F
:10058000537472696E677300436F6E747261626157
:1005900073730043656C6C6F0056696F6C61005635
:1005A000696F6C696E0053796E7468204261737371
:1005B00020320053796E74682042617373203100D9
:1005C000536C61702042617373203200536C617010
:1005D0002042617373203100467265746C657373D9
:1005E000204261737300456C2E204261737320704A
:1005F00069636B00456C2E20426173732066696EDF
:100600006765720041636F7573746963204261733B
:100610007300477569746172204861726D6F6E690D
:10062000637300446973746F72742E204775697424
:100630006172004F76657264722E2047756974612D
:100640007200456C2E477569746172206D75746512
:100650006400456C2E47756974617220636C656136
:100660006E00456C2E477569746172206A617A7AF2
:100670000041632E47756974617220737465656CFF
:100680000041632E477569746172206E796C6F6EDC
:100690000054616E676F204163636F7264696F6EAF
:1006A000004861726D6F6E696361004163636F72D0
:1006B00064696F6E0052656564204F7267616E00F9
:1006C000436875726368204F7267616E00526F6392
:1006D0006B204F7267616E0050657263757373694A
:1006E0007665204F7267616E004472617762617255
:1006F000204F7267616E0044756C63696D657200AE
:10070000547562756C61722042656C6C7300587927
:100710006C6F70686F6E65004D6172696D6261002B
:10072000566962726170686F6E65004D75736963BA
:1007300020426F7800476C6F636B656E73706965FC
:100740006C0043656C6573746100436C6176696E1F
:1007500065740048617270736963686F7264004504
:100760006C656374726963205069616E6F2032003A
:10077000456C656374726963205069616E6F2031E6
:1007800000486F6E6B792D746F6E6B205069616ECF
:100790006F00456C2E204772616E64205069616E57
:1007A0006F004272696768742041632E205069614E
:1007B0006E6F0041632E204772616E642050696144
:1007C0006E6F00230120011E011B01190117011486
:1007D0000112010F010D010A010801B601A6019FD6
:1007E000019701910189017F01780172016C01601B
:1007F00001550147013F0133012501B307A20792CB
:1008000007810770075F0753074A07420735072B21
:1008100007200718070E070007F706E906D806CDD8
:1008200006C006B506AB06A10691068106710662F2
:1008300006520642063306230612060406F405E6AF
:1008400005D805CC05C005B305A6059F05990593F8
:1008500005880578056805580550054205340524C6
:100860000514050905FE04F204E404DC04D304CEF7
:1008700004C004B404A60498048A047E0475046BBE
:10088000045E0459044C0444043B0433042D042442
:10089000041A040D040204FA03F203E403D403C4AB
:1008A00003B703A8039B038D037C036E0363035309
:1008B0000347033B032C03210315030B03FB02EE49
:1008C00002DE02CE02C102B502A902A3029D029479
:1008D000028F0287027F027802710265025F025373
:1008E0000249023E023202270218020902FC01F309
:1008F00001E801D901CE01C501BD0100C20100011D
:1009000000110011000D0000E100000A0025002583
:10091000002200009600001900390039003600124C
:100920007A00001F0046004600440080700000224C
:10093000004D004D004A00004B0000360075007568
:10094000007200403800004A009C009C0099008022
:100950002500007200EC00EC00E900C0120000E984
:1009600000DA01DA01D70160090000D701B603B649
:1009700003B303B0040000B3036E076E076B072CCC
:10098000010000DC0EC11DC11DBE1D0704022205B1
:100990000600010310302113121131000021002440
:1009A0000027002A002D0030003300010100000460
:1009B0000107010A0100000A0B02090C0D0E0807CD
:1009C000030401000000000000000000000000001F
:1009D0000000000000000000000000000000000017
:1009E00000121110000000000000000000000000D4
:1009F00000000000000000000000003A37353428F5
:100A0000292324161B11100E0D0C020000000000FB
:100A100000000000000000000000000000000000D6
:100A2000001FCC000C000000000000000008003097
:100A30000060000800300060000000022003FC1E7F
:100A400020022003FC1E200220000000000E1811CE
:100A5000043FFF10840C78000000000F0010840F8A
:100A60003800C0077818840078000000780F8410E0
:100A7000C411240E9800E400840008080068007087
:100A80000000000000000000000000000000000066
:100A90000007E01818200440020000000040022077
:100AA00004181807E00000000000000240024001A6
:100AB000800FF001800240024000000080008000B2
:100AC000800FF800800080008000000001000D0011
:100AD0000E00000000000000000000000000800088
:100AE00080008000800080008000800000000C00FA
:100AF0000C000000000000000000000000000600E4
:100B00001800600180060018002000000007F008AF
:100B10000810041004080807F0000000000804088A
:100B2000041FFC000400040000000000000E0C1074
:100B3000141024104411840E0C000000000C181036
:100B4000041104110412880C700000000000E0037E
:100B500020042408241FFC0024000000001F98101B
:100B60008411041104108810700000000007F008C0
:100B7000881104110418880070000000001C001087
:100B80000010FC13001C001000000000000E3811C3
:100B9000441084108411440E38000000000700083F
:100BA0008C10441044088807F0000000000000008A
:100BB00000030C030C000000000000000000000017
:100BC000010106000000000000000000000080019C
:100BD0004002200410080810040000022002200235
:100BE0002002200220022002200000000010040841
:100BF000080410022001400080000000000E0012D6
:100C000000100C106C10800F00000003E00C181393
:100C1000E4142417C4082807D000000004003C0393
:100C2000C41C40074000E4001C000410041FFC1119
:100C300004110411040E880070000003E00C181069
:100C4000041004100410081C10000010041FFC10F5
:100C50000410041004080807F0000010041FFC1121
:100C600004110417C410040818000010041FFC111C
:100C700004110017C010000800000003E00C181059
:100C800004100410441C780040000010041FFC10E5
:100C9000840080008010841FFC10040000100410E9
:100CA000041FFC10041004000000000003000110E9
:100CB0000110011FFE10001000000010041FFC11A5
:100CC0000403801464181C1004000010041FFC109E
:100CD00004000400040004000C000010041FFC1FAA
:100CE0000000FC1F001FFC1004000010041FFC0C7F
:100CF00004030000E010181FFC100007F0080810A3
:100D00000410041004080807F0000010041FFC1071
:100D1000841080108010800F00000007F008181069
:100D2000241024101C080A07F2000010041FFC11F4
:100D300004110011C011300E0C000400000E1C1133
:100D4000041084108410441C380000180010001097
:100D5000041FFC100410001800000010001FF81001
:100D6000040004000410041FF8100010001E0011FD
:100D7000E0001C007013801C0010001FC0103C001D
:100D8000E01F0000E0103C1FC000001004180C160B
:100D90003401C001C01634180C100410001C0013DC
:100DA0000400FC13041C00100000000804101C10B8
:100DB00064108413041C04101800000000000000DC
:100DC000007FFE4002400240020000000030000CA4
:100DD0000003800060001C0003000000004002408F
:100DE0000240027FFE000000000000000000002022
:100DF0000040004000400020000000000100010011
:100E0000010001000100010001000100004000405C
:100E10000020000000000000000000000000980119
:100E20002401440144014400FC000410001FFC00A4
:100E300088010401040088007000000000007000B8
:100E40008801040104010400880000000000700013
:100E5000880104010411081FFC0004000000F801CF
:100E60004401440144014400C800000000010401A1
:100E7000040FFC1104110411001800000000D60139
:100E8000290129012901C90106000010041FFC00E5
:100E90008401000100010400FC00040000010419A9
:100EA0000419FC000400040000000000000003001E
:100EB000010101190119FE0000000010041FFC00CF
:100EC00024004001B4010C010400000000100410D3
:100ED000041FFC0004000400000000010401FC01E8
:100EE00004010001FC0104010000FC010401FC00FC
:100EF0008401000100010400FC0004000000F8016E
:100F00000401040104010400F80000010101FF00D4
:100F100085010401040088007000000000007000DA
:100F20008801040104010501FF000101040104011D
:100F3000FC00840104010001800000000000CC01DD
:100F40002401240124012401980000000001000173
:100F50000007F80104010400000000010001F8008E
:100F60000400040004010801FC00040100018001E8
:100F700070000C001001600180010001F0010C0004
:100F80003001C00030010C01F0010000000104013B
:100F90008C00740170018C010400000101018101C9
:100FA00071000E0018016001800100000001840141
:100FB0000C013401440184010C0000000000000019
:100FC00000000001003EFC40024002000000000062
:100FD000000000FFFF000000000000000040024091
:100FE000023EFC01000000000000000000600080E4
:100FF00000800040004000200020000000000000B1
:1010000000000000000000000000003F4000000061
:1010100000000000003000400030004000000009E7
:10102000000BC03D000BC03D00090018C024407FEC
:10103000E0224031800000180024C01B000D8032E7
:1010400040018003801C4027401C80074000401066
:101050000060000000000000000000000000000030
:10106000001F80204040200000402020401F8000C2
:10107000000000090006001F8006000900000004AF
:101080000004003F80040004000000001000600025
:10109000000000000000000400040004000400043C
:1010A0000000000000004000000000000000000000
:1010B0002001C006003800400000001F80204020B2
:1010C0004020401F800000000010403FC000400052
:1010D00000000018C02140224024401840000010A9
:1010E000802040244024401B80000002000D00119D
:1010F000003FC0014000003C8024402440244023A5
:101100008000001F802440244034400380000030D1
:1011100000200027C03800200000001B802440244D
:101120004024401B8000001C0022C0224022401F9F
:1011300080000000000000084000000000000000E7
:101140000000000460000000000000000004000A2D
:101150000011002080404009000900090009000931
:1011600000000000004040208011000A0004001828
:1011700000200023402400180000001F802040278A
:101180004029401F400000004007C039000F000107
:10119000C0004020403FC0244024401B8000001F6E
:1011A000802040204020403080000020403FC02070
:1011B0004020401F80000020403FC024402E40308F
:1011C000C0000020403FC024402E00300000000F2F
:1011D000001080204022403380020020403FC004A5
:1011E0000004003FC02040204020403FC02040205D
:1011F0004000000060202020203FC0200020002070
:10120000403FC024400B0030C0204020403FC02061
:10121000400040004000C03FC03C0003C03C003FD5
:10122000C0000020403FC00C4023003FC020001FF2
:10123000802040204020401F80000020403FC024EC
:10124000402400180000001F802140214020E01FA2
:10125000A0000020403FC02440260019C0004018D4
:10126000C024402440224031800000300020403F14
:10127000C020403000000020003F80004000403F80
:1012800080200020003E0001C00700380020003808
:101290000007C03C0007C038000000204039C006ED
:1012A0000039C0204000002000384007C0384020EE
:1012B000000000304021C02640384020C00000001F
:1012C0000000007FE0402040200000000070000C83
:1012D000000380004000000000402040207FE0002C
:1012E000000000000020004000200000000000007E
:1012F000100010001000100010001000000000404E
:1013000000000000000000000002800540054003CE
:10131000C0004020003FC0044004400380000000A3
:1013200000038004400440064000000000038004E5
:101330004024403FC00040000003800540054003BA
:10134000400000000004401FC02440244020000052
:101350000002E0055005500650042020403FC00424
:1013600040040003C000400000044027C0004000CB
:1013700000000000100010041027E0000000002012
:10138000403FC00140070004C00440204020403FCF
:10139000C000400040000007C0040007C004000374
:1013A000C00000044007C00440040003C000400027
:1013B0000003800440044003800000041007F00490
:1013C00050044003800000000003800440045007E4
:1013D000F00010044007C0024004000400000000B8
:1013E0000006400540054004C00000000004001F46
:1013F00080044000400000040007800040044007D3
:10140000C000400400070004C0018006000400067C
:101410000001C0070001C006000000044006C00132
:101420000006C0044000000410071004E00180061C
:101430000004000000044005C00640044000000015
:1014400000000004007BE0402000000000000000DD
:1014500000FFF000000000000040207BE0040000DE
:1014600000000040008000400020002000400000FC
:10147000002200250028002B002E0031003400023D
:10148000010000050108010B0100002000230026D7
:101490000029002C002F003200000100000301068B
:1014A00001090105050505070508080808020202EB
:1014B000020A0A08080404040401010101010101EF
:1014C000010303030303030303040707070C0C0CC6
:1014D0000C0C0C0C0C02020202060606060606069E
:1014E000060B0B0B0B0B0B0B0B010210202008083B
:1014F0001020401020408002010201080402010176
:10150000020408102040808040201008040201805E
:1015100004020180402010080402010804020101B5
:1015200002040810204080010204081020408000BE
:10153000F22611241FBECFEFD1E2DEBFCDBF00E007
:101540000CBF27E0A8E5B3E001C01D92A93DB2079A
:10155000E1F713E0A0E0B2E0ECEEF3E500E00BBF52
:1015600002C007900D92A835B107D9F71AE0C9E972
:10157000DAE000E006C021970109802FFE010E94F9
:101580002428C839D10780E00807A9F70E94202045
:101590000C94F4290C9400008FB7F89480919F0369
:1015A0008FBF089561E0FC0184810E94561A8091EA
:1015B0009E03811110929E0308958CBD9DBD0895D8
:1015C000CF93DF93EC0180919E03811108C081E0ED
:1015D00080939E0380912C0790912D07EEDF60E0B1
:1015E0008C81DF91CF910C94561ACF93CFB7F8949A
:1015F00080919D03811127C0E8EDF4E18491EEE133
:10160000F5E19491E82FF0E0EE0FFF1FE556F64F5D
:10161000A591B491EC91E92321F461E085E30E9466
:10162000561A61E085E30E94D31A8CB580618CBDA7
:101630008CB580648CBD61E084E30E94D31A61E0C4
:1016400083E30E94D31A80919D038F5F80939D0353
:10165000CFBFCF91089520919B0330919C03281711
:10166000390779F0FC01138A2FB7F89410929A0386
:101670001092990390939C0380939B032FBF81E06A
:10168000089580E0089520E001972FEF8F3F9207A3
:10169000D9F70895DF92EF92FF920F931F93CF93A4
:1016A000DF93FC0121893289232B91F1E62EEC0195
:1016B000D2DFDFB6F894E985FA8590818885809538
:1016C0008923808389899A890596DDDF08E010E007
:1016D000FF24F394E985FA8588859F2D9E2119F0D2
:1016E0009081892B03C0908180958923808389898B
:1016F0009A89C9DFFF0C0150110961F7E985FA8564
:1017000090818885892B8083DFBE89899A89BBDF98
:1017100080E090E0DF91CF911F910F91FF90EF90CB
:10172000DF900895CF92DF92EF92FF920F931F9375
:10173000CF93DF93EC017B016A018E8981110CC08C
:10174000CE0102960E94631762E070E080E090E0B4
:101750000E940F1B8FEF8E8B87012296C8018E1976
:101760009F098C159D0534F4F80161918F01CE011C
:1017700091DFF4CFDF91CF911F910F91FF90EF9008
:10178000DF90CF900895FF920F931F93CF93DF9335
:10179000EC01F62E8E898E010E5F1F4F81110BC05A
:1017A000C8010E94631762E070E080E090E00E9450
:1017B0000F1B8FEF8E8B6F2DC801DF91CF911F9183
:1017C0000F91FF9067CFEF92FF920F931F93CF93EC
:1017D000DF93C0919B03D0919C03209709F442C0F2
:1017E000EE81FF8190818D81892309F03BC08B853B
:1017F0009C8549DF88E0E82EF12C10E001E08D8522
:101800009E8541DFEE81FF8190818D81892311F0DA
:10181000102B03C0802F80951823000F81E0E81A59
:10182000F10869F78F8598892EDF80919A032091BE
:10183000990390E001968F73992730E08217930700
:1018400079F0E0919A03F0E0E75AFC4F1083809121
:101850009A0390E001968F73992780939A0302C0B0
:1018600081E08B8BDF91CF911F910F91FF90EF90D3
:1018700008951F920F920FB60F9211240BB60F927C
:101880002F933F934F935F936F937F938F939F9388
:10189000AF93BF93EF93FF9396DFFF91EF91BF91CB
:1018A000AF919F918F917F916F915F914F913F91F8
:1018B0002F910F900BBE0F900FBE0F901F90189599
:1018C0001F920F920FB60F9211240BB60F922F9307
:1018D0003F934F935F936F937F938F939F93AF93B8
:1018E000BF93EF93FF936FDFFF91EF91BF91AF91A4
:1018F0009F918F917F916F915F914F913F912F9128
:101900000F900BBE0F900FBE0F901F9018951F9257
:101910000F920FB60F9211240BB60F922F933F9395
:101920004F935F936F937F938F939F93AF93BF93E7
:10193000EF93FF9348DFFF91EF91BF91AF919F919C
:101940008F917F916F915F914F913F912F910F9068
:101950000BBE0F900FBE0F901F9018950F931F9303
:101960008091C70300E010E020E1882371F040EB94
:1019700052E06AE270E080E690E00E94EE1C0FEF19
:101980001FE720E147EB52E00DC047EB52E06AE26F
:1019900070E080E690E00E94EE1C0FEF1FE720E170
:1019A00040EB52E06AE270E080E690E00E94EE1CBC
:1019B0001F910F9108950F931F93CF93DF93CDB78E
:1019C000DEB762970FB6F894DEBF0FBECDBFE091D1
:1019D0005803F0E0EE0FFF1FE550F84F659174914A
:1019E000CE0101960E94B22900E010E020E1AE0194
:1019F0004F5F5F4F66E170E080E690E00E94EE1C72
:101A0000E0915803E695E695E695F0E0EE0FFF1FAE
:101A1000E552F84F65917491CE0101960E94B2296A
:101A200020E1AE014F5F5F4F62E070E080E690E042
:101A30000E94EE1CE091CA03F0E0EE0FFF1FE5509C
:101A4000F84F65917491CE0101960E94B2290FEF73
:101A50001FEF20E1AE014F5F5F4F66E170E080E66F
:101A600090E00E94EE1CE091CA03E695E695E695AB
:101A7000F0E0EE0FFF1FE552F84F65917491CE0133
:101A800001960E94B22920E1AE014F5F5F4F62E0F4
:101A900070E080E690E00E94EE1C8091CA03809383
:101AA000580362960FB6F894DEBF0FBECDBFDF912C
:101AB000CF911F910F9108954F925F926F927F92F5
:101AC0008F929F92AF92BF92CF92DF92EF92FF924E
:101AD0000F931F93CF93DF931F921F92CDB7DEB763
:101AE00036E4E32EF12C412C4CE0842E912C00EEB8
:101AF0001FEF2CE04DEB52E0670185E0C80ED11CD2
:101B0000B6018AE090E00E94EE1C2CE048E353E02E
:101B1000B60182E090E00E94EE1C542C9BE4C92E9A
:101B2000D12C2BE4A22EB12C370182E0680E711C5F
:101B30000FEF1FEF24E130E044E150E0B701C501B1
:101B40000E94C11DE52DF0E0E85FFD4F20818091EE
:101B5000C8039091C903820F911DB4010E941128FE
:101B6000FC01EE0FFF1FED53F84F65917491CE010C
:101B700001960E94B22900EE1FEF20E1AE014F5FF7
:101B80005F4FB301C50102960E94EE1C88EC92E003
:101B90000E94F81E652D70E080E090E04AE00E940F
:101BA000091F84ED92E00E94F81E6091CA0370E064
:101BB00080E090E04AE00E94091F88ED92E00E94D8
:101BC000F81E539484E1C80ED11C8BEEC816D104C4
:101BD00051F0560188E8C816D1040CF4A9CF82E070
:101BE000A80EB11CA5CF88E0480E84E1E80EF11CD8
:101BF00086E9E816F10409F07ACF0F900F90DF9193
:101C0000CF911F910F91FF90EF90DF90CF90BF90F9
:101C1000AF909F908F907F906F905F904F900895BE
:101C20000F931F93CF93DF9306E410E0CBE4D0E053
:101C300040E050E0B801CE010E94CE1C2196CA3E81
:101C4000D105B1F70F5F1F4F0639110579F7DF9105
:101C5000CF911F910F9108958EBD00000DB407FE26
:101C6000FDCF8EB508958FEFF7CF0F931F93CF93CE
:101C7000DF93EB010E94471B8B01F5DF8F3F49F09B
:101C80000E94471B601B710B6C177D07B0F380E04F
:101C900001C081E0DF91CF911F910F910895CF9303
:101CA000DF93EC018E81882379F08F8198859C01E8
:101CB0002F5F3F4F38872F838230924010F4D3DF5D
:101CC000F4CFCE016FDC1E82DF91CF910895CF92C9
:101CD000DF92FF920F931F93CF93DF9300D01F9259
:101CE000CDB7DEB76C01F62E29833A834B835C8334
:101CF000D6DFC60165DC6CE271E0C601B6DF8F2D70
:101D00008064AADF08E110E05C814B813A8129817F
:101D1000DA01C901002E04C0B695A795979587955D
:101D20000A94D2F729833A834B835C8395DF08506A
:101D3000110929813A814B815C81083F8FEF180797
:101D400039F7FF2029F0E8E0FE1204C087E803C05D
:101D500085E901C08FEF80DF10E085DFF601828723
:101D600087FF04C01F3F11F01F5FF7CF0F900F9048
:101D70000F900F90DF91CF911F910F91FF90DF9007
:101D8000CF900895EF92FF920F931F93CF93DF931D
:101D9000EC017901411551056105710511F482E1EC
:101DA00034C08B85833039F089E0440F551F661F9E
:101DB000771F8A95D1F79A01AB0168E1CE0187DFE1
:101DC000882311F084E021C08EEF46DF87018EEF7B
:101DD000F81AF80181918F013FDF0E151F05C9F731
:101DE0008FEF3ADF8FEF38DF3EDF8A878F718530E4
:101DF00029F081E18D83CE01D5DB08C068E572E072
:101E0000CE0133DF811106C085E18D83CE01CADBAF
:101E100080E010C020E030E0A9016DE0CE0157DF86
:101E2000811103C020DF882311F084E1EECFCE01C1
:101E3000B9DB81E0DF91CF911F910F91FF90EF907F
:101E400008958091A003882399F140910002509158
:101E5000010260910202709103022FEC33E0809145
:101E6000CF059091D0058EDF811102C080E00895EA
:101E70004091A1035091A2036091A3037091A40328
:101E8000411551056105710589F02FEC33E0809112
:101E9000CF059091D00576DF882341F31092A103FE
:101EA0001092A2031092A3031092A4031092A00315
:101EB00081E00895BF92CF92DF92EF92FF920F934D
:101EC0001F93CF93DF936B017C01B42E80910002AE
:101ED00090910102A0910202B09103028C159D0520
:101EE000AE05BF0509F46FC0ACDF882309F472C0EA
:101EF000C091CF05D091D0058E81882369F088816B
:101F00009981AA81BB81C816D906EA06FB0621F48D
:101F10008F819885892B99F1C882D982EA82FB82C8
:101F20008B85A7019601833039F089E0220F331F9A
:101F3000441F551F8A95D1F761E1CE01C8DE882381
:101F400019F083E08D8333C00E94471B8B018BDE29
:101F50008A878F3F49F40E94471B601B710B6D32CB
:101F60007140A8F38FE003C08E3F29F08DE08D8390
:101F7000CE0118DB1CC018861F8281E08E830FEC17
:101F800013E071DEF80181938F01F5E00F3C1F072C
:101F9000C1F78F8198859E5F98878F83298522233B
:101FA00019F08115924038F0CE0179DE04C0CE01DF
:101FB000F9DA80E00FC0C0920002D0920102E092F4
:101FC0000202F09203028091A003482F4B29409314
:101FD000A00381E0DF91CF911F910F91FF90EF90CF
:101FE000DF90CF90BF9008954F925F926F927F9253
:101FF0008F929F92AF92BF92CF92DF92EF92FF9219
:102000000F931F93CF93DF93EC016A017B012801AB
:102010003901423051056105710510F480E072C04C
:1020200089859A85AB85BC850196A11DB11D841754
:102030009507A607B70790F38B889C88AD88BE8864
:102040008F89803129F4BB27AF2D9E2D8D2D09C09E
:10205000DB01CA0147E0B695A795979587954A9504
:10206000D1F7880E991EAA1EBB1E80910002909186
:102070000102A0910202B091030288169906AA06F5
:10208000BB0679F48F89803199F4DD24EE24FF2496
:10209000C601880F991FFC01E153FC4F5182408219
:1020A00018C040E0C501B40105DF8111EBCFB6CF08
:1020B000E894C7F8DD24EE24FF24C601880F991F99
:1020C000880F991FFC01E153FC4F408251826282CC
:1020D00073828091A00381608093A0038A898230FB
:1020E00080F08D819E81AF81B885880E991EAA1ED1
:1020F000BB1E8092A1039092A203A092A303B09270
:10210000A40381E0DF91CF911F910F91FF90EF9099
:10211000DF90CF90BF90AF909F908F907F906F9007
:102120005F904F9008958F929F92AF92BF92CF92FF
:10213000DF92EF92FF920F931F93CF93DF93FC01F7
:1021400081859285A385B4850196A11DB11D841753
:102150009507A607B70710F480E05BC083899489D0
:10216000A589B689C789C03129F4852E962EA72E58
:10217000BB2409C04A015B01C7E0B694A7949794B9
:102180008794CA95D1F7E9016A017B018F01BC01EF
:10219000CD01680D791D8A1D9B1D809000029090D5
:1021A0000102A0900202B0900302681579058A0529
:1021B0009B0599F4F80187898031A1F4B701A60144
:1021C000552766277727440F551FFA01E153FC4F27
:1021D00080819181A0E0B0E017C040E06BDE81110A
:1021E000E9CFBACFB701A6014F77552766277727E2
:1021F000440F551F440F551FFA01E153FC4F8081D6
:102200009181A281B381BF7088839983AA83BB83A4
:1022100081E0DF91CF911F910F91FF90EF90DF90C0
:10222000CF90BF90AF909F908F9008953F924F9224
:102230005F926F927F928F929F92AF92BF92CF9256
:10224000DF92EF92FF920F931F93CF93DF93CDB75F
:10225000DEB72C970FB6F894DEBF0FBECDBF5C0182
:10226000DC015B968D909C905C971696CD90DD90EE
:10227000ED90FC901997C114D104E104F10439F0F8
:10228000BFEFCB1ADB0AEB0AFB0A312C07C0F401C3
:10229000C080D180E280F38033243394F4018185BF
:1022A0009285A385B4859C01AD012F5F3F4F4F4FB1
:1022B0005F4F29873A874B875C87260137011D824C
:1022C0001E821F821886F40181859285A385B485BC
:1022D0002D813E814F815885281739074A075B07B2
:1022E00008F060C089859A85AB85BC858C159D05F5
:1022F000AE05BF0550F482E0C82ED12CE12CF12CA4
:1023000092E0492E512C612C712C9E012F5F3F4F82
:10231000B701A601C40107DF882309F443C08981FE
:102320009A81AB81BC81892B8A2B8B2B41F02601B2
:1023300037019FEF491A590A690A790A05C0C4147E
:10234000D504E604F70491F02D813E814F81588534
:102350002F5F3F4F4F4F5F4F2D833E834F835887F3
:102360003FEFC31AD30AE30AF30AADCF0FEF1FEF13
:102370002FEF3FE0B301A201C40136DE882391F0C4
:10238000D50116964D915D916D917C9119974115EE
:1023900051056105710541F093018201C40124DEFC
:1023A000811102C080E02AC0D50116964D925D923F
:1023B0006D927C921997332051F0D301C20101969E
:1023C000A11DB11DF40180839183A283B383F50124
:1023D0008789908DA18DB28D892B8A2B8B2B69F4E7
:1023E000D50157964D925D926D927C925A971496B4
:1023F0008C911497806814968C9381E02C960FB67C
:10240000F894DEBF0FBECDBFDF91CF911F910F912A
:10241000FF90EF90DF90CF90BF90AF909F908F9004
:102420007F906F905F904F903F9008954F925F9292
:102430006F927F928F929F92AF92BF92EF92FF9294
:102440000F931F93CF93DF9300D01F921F92CDB7AE
:10245000DEB78C016D83DC0115968C911597813068
:1024600009F056C014968C9181FF52C059C0038C5C
:10247000F48DE02D258530E0275F3F4F2A013B0199
:10248000B1E04B1A510861087108022E04C076941D
:102490006794579447940A94D2F7D501C4010197E1
:1024A000A109B10904C0B695A795979587952A9576
:1024B000D2F784159505A605B70508F06FC0F80199
:1024C0004789508D618D728D4683578360877187F0
:1024D0002C013D017801E6E0EE0EF11CD80141141B
:1024E00051046104710409F463C016964D915D9125
:1024F0006D917C91199797015B968D919C915C975A
:1025000012DEB1E04B1A5108610871088111E6CF63
:1025100081E090E0F8019383828380E090E049C1FC
:1025200082FF0EC0F80142855385648575858388D6
:102530009488A588B688481559056A057B05F1F485
:10254000D8011A964D915D916D917C911D975B9686
:102550008D919C915C97FC0174807A944A015B0197
:1025600029E0B694A794979487942A95D1F7782078
:102570007A01F1E0FF22772011F162C08114910409
:10258000A104B10409F073CF168217821086118658
:10259000F8011286138614861586D2CF452B462B5A
:1025A000472B09F48CCF84199509A609B70990CF58
:1025B0001A968D929D92AD92BC921D97C1CFE11457
:1025C000F10409F03DC0F8014681578160857185AD
:1025D000411551056105710549F48789908DA18DDB
:1025E000B28D0097A105B10531F520C09E012F5F86
:1025F0003F4F99DD882309F490CF89819A81AB817F
:10260000BC81F801238D348DF9012789203129F00F
:1026100048EF5FEF6FEF7FE004C048EF5FEF60E0EF
:1026200070E084179507A607B70728F0C801FEDDFC
:10263000811106C06DCFF80186839783A087B1878B
:10264000D8015B96ED91FC915C9716968D909D90CC
:10265000AD90BC901997B2E08B1A9108A108B1080F
:10266000058404C0880C991CAA1CBB1C0A94D2F7D0
:1026700086859785A089B189880E991EAA1EBB1EE2
:10268000870C911CA11CB11CE114F10401F5F801A7
:10269000428553856485758583899489A589B68922
:1026A000481759076A077B0790F0CBDB882309F4AA
:1026B0002FCF8092000290920102A0920202B0926B
:1026C00003028091A00381608093A00307C041E0D2
:1026D000C501B401EFDB882309F41ACFF701E153F8
:1026E000FC4F8D818083F80182859385A485B58513
:1026F0000196A11DB11D82879387A487B587438961
:10270000548965897689481759076A077B0738F421
:10271000838B948BA58BB68B848180688483D8014E
:1027200014968C9183FD03C081E090E042C0F801D3
:102730009581992309F4ECCE87FF37C066857785AC
:102740008089918941E0B6DB882309F4E1CED80184
:102750005296EC91B0E2EB9F90011124D901A15364
:10276000BC4F109709F4D4CEF8018581823050F423
:1027700043895489658976895C964D935D936D9301
:102780007C935F97F8018789908DA18DB28DF901B7
:10279000E153FC4F938F828FB58BA48BD801149695
:1027A0008C9114978F7714968C934BDB8111BCCF4F
:1027B000AFCE0F900F900F900F900F90DF91CF91B1
:1027C0001F910F91FF90EF90BF90AF909F908F90CF
:1027D0007F906F905F904F900895909102016623D3
:1027E00011F0906101C09F7E909302012C9834DA21
:1027F0002C9A0895CF93C62F60E0EFDF61E08C2F15
:10280000CF91EBCF7F928F929F92AF92BF92CF9258
:10281000DF92EF92FF920F931F93CF93DF93CDB789
:10282000DEB72A970FB6F894DEBF0FBECDBF782E65
:10283000CE0101967C016E019BE0C90ED11C5701AF
:102840009E2C8F2CA598872D07DA80E005DA082FBB
:1028500010E0102F002780E0FFD9082BA59A94E004
:10286000169507959A95E1F7D5010D931D935D0196
:10287000AC15BD0539F790E09F5F892FF7012081E6
:102880003181E92DF82DE80FF11DE80FF11D408190
:1028900051814217530728F4D7014D935C9331833C
:1028A00020838F5F853051F7B2E0EB0EF11C94303E
:1028B00019F72D813E818B819C81820F931F2F817F
:1028C0003885820F931F63E070E00E94FD27CB01E3
:1028D0002A960FB6F894DEBF0FBECDBFDF91CF9121
:1028E0001F910F91FF90EF90DF90CF90BF90AF902E
:1028F0009F908F907F90089590910201662311F030
:10290000906101C09F7E909302012C98A5D92C9ACA
:102910000895CF93C62F60E0EFDF61E08C2FCF9159
:10292000EBCF0F931F93CF93DF931F92CDB7DEB7FB
:10293000182F062F692F82E07983EBDF612F83E068
:10294000E8DF7981672F86E0E4DF602F87E00F9072
:10295000DF91CF911F910F91DCCFCF92DF92EF9259
:10296000FF92CF93DF93EC0160E070E080E090E0B5
:10297000D8DF60E082E2C0DF209102012061209375
:1029800002012C98C12C8CE2D82EEE24E394F12C79
:102990008D2F62D98C2F60D981E0C81AD108E10847
:1029A000F108B1F72C9ADF91CF91FF90EF90DF9073
:1029B000CF90089587FD28C0A82FA295AF70909161
:1029C0008707A91708F58F70E82FF0E0E557F64F55
:1029D000E491B0E0AA0FBB1FA958B84F8D919C910C
:1029E000AE2FB0E024E0B595A7952A95E1F7A80FA2
:1029F000B91F56968C9190E0EF7002C0959587951F
:102A0000EA95E2F78170089580E0089587FD28C077
:102A1000A82FA295AF7090918707A91708F58F701E
:102A2000E82FF0E0E557F64FE491B0E0AA0FBB1FA6
:102A3000A958B84F8D919C91AE2FB0E024E0B59588
:102A4000A7952A95E1F7A80FB91F50968C9190E0B1
:102A5000EF7002C095958795EA95E2F78170089529
:102A600080E00895682F80E297E091C41F93CF9390
:102A7000DF9300D0CDB7DEB7182F19821A821B82E0
:102A800081EB898343E050E0BE016F5F7F4F88E8B0
:102A900097E00E94920B61EC88E897E00E94C30BDC
:102AA000612F88E897E00E94C30B0F900F900F9062
:102AB000DF91CF911F9108958F929F92AF92BF9215
:102AC000CF92DF92EF92FF92CF93DF93C82F8EE2E7
:102AD00097E09093D0058093CF05CC2361F1C5306A
:102AE00010F080E00BC140E060E070E0CB01E2D983
:102AF0008823B9F320E1C29FC001112481549C4F67
:102B0000FC01E254FE4F20812F7759F73C9640811B
:102B1000518162817381443651056105710508F365
:102B20003497C080D180E280F380C114D104E104E5
:102B3000F10421F4D6CFC12CD12C760140E0C7019D
:102B4000B601B8D9882369F28091DA039091DB034A
:102B50008115924031F6A091DF03AA2309F4C1CF79
:102B60006091DD037091DE036115710509F4B9CF41
:102B70002091DC03222309F4B4CFA0934C072093C7
:102B80003E0780E030E0E1E0F0E0C82FAF01082E22
:102B900002C0440F551F0A94E2F72417350741F08D
:102BA000982F8F5F983089F789E08093470799CFF6
:102BB000809347072091E5033091E6032115310505
:102BC00019F040E050E008C02091F3033091F40385
:102BD0004091F5035091F60320933F07309340074F
:102BE000409341075093420746015701860E971EB6
:102BF000A11CB11C80924D0790924E07A0924F07E6
:102C0000B0925007E091E003F091E103F093530795
:102C1000E0935207B0E00E94B929860E971EA81EC5
:102C2000B91E8092540790925507A0925607B09211
:102C3000570785E0EE0FFF1F8A95E1F7E150FE4F41
:102C4000EF2FFF27E6958E0E9F1EA11CB11C8092D0
:102C5000480790924907A0924A07B0924B072091EB
:102C6000E2033091E3032115310521F0A90160E071
:102C700070E008C04091EF035091F0036091F103C0
:102C80007091F203D701C60188199909AA09BB09F5
:102C9000840F951FA61FB71F04C0B695A7959795DB
:102CA0008795CA95D2F78093430790934407A093E2
:102CB0004507B0934607853F2FE09207A105B10570
:102CC00010F48CE018C0853F9F4FA105B10510F4AA
:102CD00080E111C08091FB039091FC03A091FD0362
:102CE000B091FE038093540790935507A093560725
:102CF000B093570780E28093510781E0DF91CF9135
:102D0000FF90EF90DF90CF90BF90AF909F908F900B
:102D100008958F929F92AF92BF92EF92FF920F937E
:102D20001F93CF93DF93EC01162F1B8619861E820B
:102D30001D8285E08C83ABD44B015C0161E08C810A
:102D400032D461E08C81B2D30E94F50A82E580938F
:102D50002C0710922D0780912C0790912D070E942F
:102D6000DD0A0AE08FEF0E942C0E0150D9F77401A2
:102D7000CE010E94E00A20E030E0A90160E0CE012F
:102D80000E94670E082F8A87813041F080D46E1927
:102D90007F09613D774078F381E04BC02AEA31E05A
:102DA00040E050E068E0CE010E94670E82FF02C062
:102DB0000B870EC094E0B92E0E94330E8A87BA9416
:102DC000B110FACF8A3A11F082E033C082E08B87EB
:102DD0008B85823021F0812C912C540105C0812CEF
:102DE000912CA12C80E4B82E20E030E0A90167E30B
:102DF000CE010E94670EA501940169E2CE010E94F6
:102E0000670E8A87882341F042D46E197F09613D9D
:102E1000774050F388E00DC08B858230E1F420E0EC
:102E200030E0A9016AE3CE010E94670E882331F0E9
:102E300086E08D83CE010E94D20A38C00E94330EF4
:102E4000807C803C11F483E08B870E94330E0E94CB
:102E5000330E0E94330ECE010E94D20A173018F0B2
:102E600086E18D8323C0123081F030F4112359F0B4
:102E70001130B1F480E515C0143059F040F0153030
:102E800079F482E50EC080E505C081E503C081E5E7
:102E900008C082E580932C0781E080932D0707C04E
:102EA00083E580932C0710922D0701C000E0802F4E
:102EB000DF91CF911F910F91FF90EF90BF90AF9056
:102EC0009F908F900895CF93DF93EC011A8A198A0F
:102ED000188A1F861E861D868BEF98E020E030E062
:102EE000FC01459155916591749142315A476105B4
:102EF000710519F54CE0429FC001439F900D1124CC
:102F0000FC01E150F74F259134913C872B87FC0160
:102F1000EF5FF64F259134913E872D87FC01ED5FE1
:102F2000F64F25913491388B2F87FC01EB5FF64FDC
:102F3000859194919A8B898B09C02F5F3F4F0C9696
:102F40002C30310509F0CCCF1C861B868F859889E3
:102F5000892B09F443C08C81883098F480916800F3
:102F600084608093680020916D0081E090E00C8087
:102F700002C0880F991F0A94E2F7822B80936D009C
:102F800029C08E3098F48091680081608093680039
:102F900030916B002C81285081E090E001C0880FB7
:102FA0002A95EAF7832B80936B0014C0863190F446
:102FB0008091680082608093680030916C002C8161
:102FC0002E5081E090E001C0880F2A95EAF7832B0C
:102FD00080936C0089899A890E94430BCE01DF910E
:102FE000CF910C942B0BCF92DF92EF92FF920F9325
:102FF0001F93CF93DF936C017A018B01C0E0D0E087
:10300000CE15DF0589F0D8016D918D01D601ED91C6
:10301000FC910190F081E02DC6011995892B11F4E6
:103020007E0102C02196ECCFC701DF91CF911F91A5
:103030000F91FF90EF90DF90CF900895FC01918D5C
:10304000828D981761F0828DDF01A80FB11D5D960A
:103050008C91928D9F5F9F73928F90E008958FEF78
:103060009FEF0895FC01918D828D981731F0828D2C
:10307000E80FF11D858D90E008958FEF9FEF089583
:10308000FC01918D228D892F90E0805C9F4F821BE7
:1030900091098F739927089583E896E0F1DF21E085
:1030A000892B09F420E0822F0895FC01848DDF0133
:1030B000A80FB11DA35ABF4F2C91848D90E00196AB
:1030C0008F739927848FA689B7892C93A089B1899A
:1030D0008C9180648C93938D848D981306C00288A4
:1030E000F389E02D80818F7D80830895EF92FF9298
:1030F0000F931F93CF93DF93EC0181E0888F9B8D1B
:103100008C8D981305C0E889F989808185FD23C0DD
:10311000F62E0B8D10E00F5F1F4F0F731127E02E5F
:103120008C8DE8120BC00FB607FCFACFE889F9893D
:10313000808185FFF5CFCE01B8DFF2CF8B8DFE0108
:10314000E80FF11DE35AFF4FF0820B8FEA89FB89EC
:103150008081806207C0EE89FF896083E889F989F0
:1031600080818064808381E090E0DF91CF911F9126
:103170000F91FF90EF900895CF93DF93EC01888D2E
:103180008823C1F0EA89FB89808185FD05C0A88973
:10319000B9898C9186FD0EC00FB607FCF5CF8081F2
:1031A00085FFF2CFA889B9898C9185FFEDCFCE013B
:1031B0007CDFE8CFDF91CF91089580E090E0892B0C
:1031C00019F06ADF811125C080E090E0892B41F081
:1031D00080E090E0892B21F00E94000081111CC04A
:1031E00080E090E0892B41F080E090E0892B21F095
:1031F0000E940000811113C080E090E0892BA1F0B3
:1032000080E090E0892B81F00E94000081110AC0CB
:1032100008950E940000D8CF0E940000E1CF0E94D4
:103220000000EACF0C94000008953FB7F894809115
:103230001D0690911E06A0911F06B091200626B58E
:10324000A89B05C02F3F19F00196A11DB11D3FBFDE
:10325000BA2FA92F982F8827820F911DA11DB11D6C
:10326000BC01CD0142E0660F771F881F991F4A9568
:10327000D1F7089585ED8093BC008091BC0084FD5A
:10328000FCCF1092470608954091F305262F30E0B9
:10329000240F311D21323105DCF420914706243002
:1032A000C9F4FC0180E090E0861758F43091F305F2
:1032B0002191DC01AF52BA4FA30FB11D2C9301969F
:1032C000F3CF8091F305680F6093F30580E00895D4
:1032D00081E0089582E008950895E091A603809129
:1032E000A503E81730F4F0E0E955FC4F808190E049
:1032F00008958FEF9FEF08959091A6038091A50305
:10330000981750F4E92FF0E0E955FC4F208130E0A8
:103310009F5F9093A60302C02FEF3FEFC90108956E
:103320008091A50390E02091A603821B9109089546
:10333000CF92DF92EF92FF920F931F93CF93DF9381
:103340007C01262F972F8A0180914806882391F0CF
:10335000C62FD72F6E01C40ED51ECC15DD0569F022
:103360006991D701ED91FC910190F081E02DC701A9
:103370001995F3CF642F822F87DFC801DF91CF919A
:103380001F910F91FF90EF90DF90CF900895CF9312
:10339000DF931F92CDB7DEB76983209148062223C1
:1033A000D1F020916B06203240F021E030E0FC01AA
:1033B0003383228380E090E014C080914906E82F97
:1033C000F0E0E65BF94F998190838F5F8093490627
:1033D00080936B0604C061E0CE01019655DF81E069
:1033E00090E00F90DF91CF9108950E94AE291F9237
:1033F0000F920FB60F9211240BB60F922F933F939B
:103400004F935F936F937F938F939F93AF93BF93EC
:10341000EF93FF9383E896E048DEFF91EF91BF9131
:10342000AF919F918F917F916F915F914F913F915C
:103430002F910F900BBE0F900FBE0F901F901895FD
:103440001F920F920FB60F9211240BB60F922F936B
:103450008F939F93EF93FF93E0919306F0919406DF
:103460008081E0919906F0919A0682FD12C09081C8
:1034700080919C068F5F8F7320919D06821751F07B
:10348000E0919C06F0E0ED57F94F958F80939C06F4
:1034900001C08081FF91EF919F918F912F910F90AB
:1034A0000BBE0F900FBE0F901F901895362F90E017
:1034B000FC01EB54F64F4491FC01E751FB4E249183
:1034C000FC01ED55FB4E9491992309F46BC0442304
:1034D00009F455C050E0FA013197E231F10508F0E6
:1034E0004EC08827EE58FF4F8F4F0C9424288091B0
:1034F00080008F7707C0809180008F7D03C080910E
:103500008000877F809380003AC084B58F7702C0A7
:1035100084B58F7D84BD33C08091B0008F7703C0A8
:103520008091B0008F7D8093B00029C08091900081
:103530008F7707C0809190008F7D03C080919000AD
:10354000877F809390001BC08091A0008F7707C079
:103550008091A0008F7D03C08091A000877F809321
:10356000A0000DC0809120018F7707C080912001BD
:103570008F7D03C080912001877F80932001E92FF8
:10358000F0E0EE0FFF1FE159FB4EA591B4918FB70C
:10359000F894EC91311103C020952E2301C02E2BFD
:1035A0002C938FBF0895CF93DF9390E0FC01E751F8
:1035B000FB4E2491FC01ED55FB4E8491882361F173
:1035C00090E0880F991FFC01E556F64FC591D49104
:1035D000FC01E159FB4EA591B491611109C09FB75F
:1035E000F8948881209582238883EC912E230BC048
:1035F000623061F49FB7F8943881822F80958323DD
:103600008883EC912E2B2C939FBF06C08FB7F89424
:10361000E8812E2B28838FBFDF91CF9108958F9261
:103620009F92AF92BF92CF92DF92EF92FF926B0187
:103630007C01FBDD4B015C01C114D104E104F10408
:10364000E9F0F3DDDC01CB0188199909AA09BB096E
:10365000883E9340A105B10578F321E0C21AD10854
:10366000E108F10888EE880E83E0981EA11CB11CC9
:10367000C114D104E104F10421F7DECFFF90EF90F3
:10368000DF90CF90BF90AF909F908F9008952FB70D
:10369000F8946091190670911A0680911B0690911A
:1036A0001C062FBF08951F920F920FB60F92112480
:1036B0002F933F938F939F93AF93BF93809119065E
:1036C00090911A06A0911B06B0911C063091180625
:1036D00023E0230F2D3720F40196A11DB11D05C055
:1036E00026E8230F0296A11DB11D20931806809392
:1036F000190690931A06A0931B06B0931C0680919E
:103700001D0690911E06A0911F06B09120060196FD
:10371000A11DB11D80931D0690931E06A0931F0648
:10372000B0932006BF91AF919F918F913F912F91C0
:103730000F900FBE0F901F9018951F920F920FB60B
:103740000F9211240BB60F922F933F934F935F93D9
:103750006F937F938F939F93AF93BF93EF93FF9359
:103760008091B900887F803609F49CC068F5883262
:1037700009F45BC090F4803109F454C038F4882314
:1037800009F4F6C0883009F44DC0F5C0883109F459
:103790004CC0803209F45DC0EEC0803409F468C0CA
:1037A00048F4803309F455C0883309F0E4C08093AD
:1037B0004506D8C0803509F44FC0883509F45DC08E
:1037C000883409F0D8C0D6C0883909F4C7C0A8F435
:1037D000883709F467C038F4883609F463C0803745
:1037E00009F460C0C8C0883809F4B8C0803909F449
:1037F0005FC0803809F0BFC05BC0803B09F486C061
:1038000038F4803A09F466C0883A09F47FC0B3C03E
:10381000803C09F4A7C0883C09F4A4C0883B09F4A3
:103820008AC0A9C08091220610C090914406809160
:103830004306981770F5E091440681E08E0F80935F
:103840004406F0E0ED5DF94F80818093BB0085EC8C
:1038500086C0809345068EC0E091440681E08E0FBD
:10386000809344068091BB00F0E0ED5DF94F8083CA
:1038700090914406809143066EC0E091440681E039
:103880008E0F809344068091BB00F0E0ED5DF94F10
:1038900080838091460681116DC081E0809321066E
:1038A00084EA61C083E08093470610921706CFCF69
:1038B00080911706803208F051C0E091170681E030
:1038C0008E0F809317068091BB00F0E0E950FA4F0D
:1038D0008083BDCF85EC8093BC0010924706809119
:1038E0001706803230F4E0911706F0E0E950FA4F05
:1038F00010826091170670E0E091F505F091F605F1
:1039000087EF95E019951092170635C084E08093F3
:1039100047061092F4051092F305E091F105F0913D
:10392000F20519958091F305811105C081E080931E
:10393000F3051092D105E091F40581E08E0F80939C
:10394000F405F0E0EF52FA4F80818093BB00909134
:10395000F4058091F305981708F479CF85E88093F2
:10396000BC0009C085EC8093BC001092470603C0E0
:10397000109245067FDCFF91EF91BF91AF919F912F
:103980008F917F916F915F914F913F912F910F9008
:103990000BBE0F900FBE0F901F901895CF93DF9323
:1039A000803F9105C0F4603421E07207A0F4EA0181
:1039B0000E94911460E082E20E947C1480910201D6
:1039C0008061809302012C988D2F0E942C0E8C2FE9
:1039D0000E942C0E2C9ADF91CF9108952F923F9246
:1039E0004F925F926F927F928F929F92AF92BF920F
:1039F000CF92DF92EF92FF920F931F93CF93DF93BB
:103A0000CDB7DEB72E970FB6F894DEBF0FBECDBF91
:103A10007C017E876D871C830B83222E2694312C9C
:103A200080EF90E0BC01621973097A8369832A01EF
:103A3000A22EB12C80E491E0FC01EA19FB09FA877F
:103A4000E987F2018081882309F482C049815A8183
:103A50004E155F05C0F46D857E856A0D7B1D7E87E2
:103A60006D8789859A858617970758F480E090E0DE
:103A70002C870E94AD141E861D86E12CF12C2C850E
:103A800002C0E12CF12CF20181912F01F0EFEF1631
:103A9000F10409F45AC04D855E854034514008F068
:103AA00054C070E1879FA0011124ECE08E9FC001FB
:103AB000112430E00D851E854701C12CD12CBA019F
:103AC00072507E836D83FC01E058F140F887EF83EC
:103AD000CA14DB04D1F12C3039F4EF81F885EC0DF8
:103AE000FD1DE550F04F08C0203139F4ED81FE8115
:103AF000EC0DFD1DE55FF54F34913801F8E06F0ED8
:103B0000711C37FF09C04B815C81B801C4012C874F
:103B10003B8744DF3B852C85330F0F5F1F4FC80168
:103B20004D855E85841B950B8A159B0531F45FEFEF
:103B3000851A950A6D847E8403C00615170509F75A
:103B40006FEFC61AD60A8301C3CFE20CF31C79CFFC
:103B50002E960FB6F894DEBF0FBECDBFDF91CF918A
:103B60001F910F91FF90EF90DF90CF90BF90AF909B
:103B70009F908F907F906F905F904F903F902F908D
:103B800008954F925F926F927F928F929F92AF9221
:103B9000BF92CF92DF92EF92FF920F931F93CF933A
:103BA000DF936C01EB0129017C01E40EF51E470156
:103BB00020EFE216F10418F08FEE882E912C80EFA2
:103BC000C816D10440F05E01A40CB51C20EFC2164B
:103BD000D10488F021C0C03481E0D807A0F7560195
:103BE000A814B90480F7A801BE01C501D7DE2FEFE4
:103BF000A21AB20AF5CF80E4A81681E0B80650F503
:103C000036016814790430F5A801B501C301C6DE98
:103C10002FEF621A720AF5CF80EFE816F104B0F5C3
:103C2000C03481E0D80790F52FEF421A520A4C0EAB
:103C30005D1EC20120E4421621E0520610F08FE31F
:103C400091E0C817D90710F5A801BE01C701A6DE8B
:103C50002196EFCFC03481E0D807C0F44E01C501F2
:103C600020E4A21621E0B20610F08FE391E088165E
:103C7000990640F4A801B401C60190DE2FEF821A24
:103C8000920AEDCF20EFE216F10470F2DF91CF91AE
:103C90001F910F91FF90EF90DF90CF90BF90AF906A
:103CA0009F908F907F906F905F904F9008956F924C
:103CB0007F928F929F92AF92BF92CF92DF92EF92BC
:103CC000FF920F931F93CF93DF93CDB7DEB7A097EB
:103CD0000FB6F894DEBF0FBECDBF3B015A0169019C
:103CE00020E1E8E5F2E0DE01519601900D922A957F
:103CF000E1F720E1E8E6F2E0DE01119601900D9295
:103D00002A95E1F70197FC01EE0FFF1F41E050E01B
:103D10004C0F5D1FE40FF51FE080F18080889188D3
:103D200050EF8516910468F480E4E81681E0F80607
:103D300040F4860126E230E046E750E0B701C401D6
:103D400020DF2CEFA3012403C001259F900D112437
:103D5000FC01FB96C4018E0F9F1F803F910558F414
:103D6000B701655F7F4F603451E0750720F486012D
:103D700020E1A50133DEA0960FB6F894DEBF0FBE9A
:103D8000CDBFDF91CF911F910F91FF90EF90DF900A
:103D9000CF90BF90AF909F908F907F906F9008953D
:103DA000E3E8F6E0A089B18982E08C93A485B5852B
:103DB0001C92A685B7858FEC8C93108EA489B5894B
:103DC00086E08C93A289B3898C9180618C93A289BF
:103DD000B3898C9188608C93A289B3898C91806817
:103DE0008C930288F389E02D80818F7D80830895F4
:103DF000009761F0FC0101900020E9F73197AF01D5
:103E0000481B590BBC0183E896E0EDC880E090E0C8
:103E100008958F929F92AF92BF920F931F93CF936B
:103E2000DF93CDB7DEB7A1970FB6F894DEBF0FBE14
:103E3000CDBF19A2423008F44AE08E010F5D1F4F3A
:103E4000842E912CA12CB12CA50194010E94C32990
:103E5000E62FB901CA0101501109EA3014F4E05DFE
:103E600001C0E95CD801EC93232B242B252B61F7AF
:103E7000C801BEDFA1960FB6F894DEBF0FBECDBF5E
:103E8000DF91CF911F910F91BF90AF909F908F9036
:103E9000089520916B0690916A06213208F04AC07D
:103EA000809147068111FCCF32E03093470631E024
:103EB000309346063FEF3093450610924406209318
:103EC0004306AAE4B6E043E256E0FA013E2F341B73
:103ED000321718F43D913193F9CF109222062091B8
:103EE0002206990F922B90932206909121069130F1
:103EF00061F410922106909122069093BB0090915C
:103F0000BC0093FDF8CF95EC01C095EE9093BC00FA
:103F1000909147069230E1F3909145069F3F79F0EA
:103F200080914506803241F080914506803331F022
:103F300084E005C081E003C082E001C083E010920C
:103F4000490610926B06109248060895CF92DF92B0
:103F5000EF92FF920F931F93CF93DF9310E001E056
:103F600080918707181760F5E12FF0E0EE0FFF1F33
:103F7000E958F84FC081D181209701F18C8D0093D1
:103F8000480680936A061092490610926B0660E01C
:103F900080E297E0FCD97E0180E1E80EF11C6E0121
:103FA000688180E297E0F3D92296F601618180E290
:103FB00097E0EDD9CE15DF0591F76BDF1F5FD0CF0E
:103FC000DF91CF911F910F91FF90EF90DF90CF90F5
:103FD0000895CF93DF9387FD30C0C82FC295CF706F
:103FE00090918707C91748F58F70E82FF0E0E550EA
:103FF000F64FE491D0E0CC0FDD1FC958D84FAE2F5B
:10400000B0E094E0B595A7959A95E1F7AA0FBB1F8C
:1040100088819981A80FB91FEF7081E090E002C0FC
:10402000880F991FEA95E2F7809590952D913C9124
:104030001197822393238D939C93DF91CF910895C1
:10404000CF93DF93CDB7DEB768970FB6F894DEBF96
:104050000FBECDBF789484B5826084BD84B5816085
:1040600084BD85B5826085BD85B5816085BD809143
:104070006E00816080936E001092810080918100BB
:1040800082608093810080918100816080938100B3
:10409000809180008160809380008091B100846075
:1040A0008093B1008091B00081608093B0008091D6
:1040B0009100826080939100809191008160809353
:1040C0009100809190008160809390008091A10088
:1040D00082608093A1008091A10081608093A10003
:1040E0008091A00081608093A00080912101826076
:1040F0008093210180912101816080932101809131
:10410000200181608093200180917A0084608093F7
:104110007A0080917A00826080937A0080917A00A0
:10412000816080937A0080917A00806880937A0021
:104130001092C10035DE9D9AA59A61E085E033DAE0
:1041400061E085E0B3D91E821F821A861C8660E07A
:10415000CE0101960E94891661E08EE297E00E94EE
:104160008916882309F400C181E00E945C15882328
:1041700029F080915D07882341F0F6C080E00E941D
:104180005C15882309F4F0C0F4CF80915107803189
:1041900009F582E080935D0710926F071092700717
:1041A00010927107109272078091520790915307F5
:1041B000A0E0B0E065E0880F991FAA1FBB1F6A95B9
:1041C000D1F780936B0790936C07A0936D07B09322
:1041D0006E075DC0803209F0C7C083E080935D0741
:1041E0008091540790915507A0915607B0915707B9
:1041F00080936F0790937007A0937107B093720735
:104200008D8B9E8BAF8BB88F812C912C5401412CC0
:1042100052E0552E612C712C4D895E896F89788D05
:104220009E012B5E3F4F8AE397E00E949310882304
:1042300009F49AC0D301C2010090470704C0880F57
:10424000991FAA1FBB1F0A94D2F7880E991EAA1E97
:10425000BB1E4D895E896F89788D809151078031B1
:1042600029F088EF9FEFAFEFBFE004C088EF9FEF2A
:10427000A0E0B0E0481759076A077B0768F2809210
:104280006B0790926C07A0926D07B0926E078AE35D
:1042900097E0909374078093730781E080935C07A5
:1042A00010925E0710925F071092600710926107EC
:1042B00010926207109263071092640710926507CC
:1042C00010926607109267071092680710926907AC
:1042D00010926A078CB58C608CBD8CB58F7D8CBDBF
:1042E0008CB58C7F8CBD8DB58E7F8DBD0E94F50AFF
:1042F00057DD6FEF88E897E00E94C30B5E012DE069
:10430000A20EB11C87E0F50111928A95E9F785E6C6
:104310008E8784E6888B86E08A8B80EB8D8784E0AD
:104320008B8B47E050E0B50188E897E00E94920B44
:104330008091CA030E94361580E78D8781E78E87BA
:1043400082E78F8783E7888B84E7898B85E78A8B71
:1043500086E78B8B87E78C8BC12CDD24D39438E4E4
:10436000932E45E4842E79C08BED92E041DD88EDFB
:1043700092E03EDDFFCF8C2D90E0FC01EE0FFF1FA1
:10438000E958F84F008111810115110509F464C045
:10439000F501E80FF91F8081F801848F1092A603C0
:1043A0001092A5031092490610926B0610924706D0
:1043B000D09246061092210661E084E177D861E050
:1043C00085E174D88091B9008E7F8093B900809187
:1043D000B9008D7F8093B9009092B8008092BC00A4
:1043E000F801848DD092480680936A06109249069F
:1043F00010926B0681E290E00E9432154ADDF801CE
:10440000848DD092480680936A06109249061092D5
:104410006B0681E890E00E9432153BDDF801848D47
:10442000D092480680936A061092490610926B0655
:104430008FEE90E00E9432152CDDF801848DD09231
:10444000480680936A061092490610926B0681EA2C
:1044500090E00E9432151DDDC39480918707C81635
:1044600008F489CF9D9AA59A80910101806180937B
:10447000010180910201806180930201249A2C9AAB
:1044800080910101806480930101809102018F7B02
:10449000809302016FEF80E00E9489146FEF81E644
:1044A0000E9489146FEF82E60E9489146FEF83E601
:1044B0000E94891460E08AEE0E94891460E28BEE0B
:1044C0000E9489146CE08CEE0E94891464EC8DEEDD
:1044D0000E94891468E388EE0E94891460E189EEE5
:1044E0000E94891461E081EF0E94891460E182EFEB
:1044F0000E94891461E080E40E94891460E081E4F4
:104500000E94891460E082E40E94891460E183E4DF
:104510000E9489146EE084E40E94891464E285E4B8
:104520000E94891464E086E40E94891460E587E4AF
:104530000E94891462E088E40E94891463E189E49E
:104540000E94891469E18AE40E94891469E18BE47C
:104550000E94891466E18CE40E9489146BE180E575
:104560000E94891461E381E50E9489146FE282E56B
:104570000E9489146FE383E50E9489146FE384E548
:104580000E9489146EE385E50E9489146FE286E536
:104590000E9489146BE787E50E94891469E088E529
:1045A0000E94891466E089E50E94891466E08AE524
:1045B0000E9489146CE08BE50E9489146DE18CE502
:1045C0000E9489146CEC8DE50E9489146BE18BE1EB
:1045D0000E94891461E08AE10E9489146FE284E2FA
:1045E0000E94891467E585E20E94891468E883E2E5
:1045F0000E94891464E388E10E94891461E089E1E2
:104600000E94891460E081E00E94891468E88FE1CB
:104610000E94891465E070E080E090E000D860E8D6
:104620008FE10E94891465E070E080E090E00E94D4
:104630000F1B60E98FE10E94891465E070E080E063
:1046400090E00E940F1B60ED8FE10E94891465E0ED
:1046500070E080E090E00E940F1B65E087E10E941F
:10466000891460E086E30E94891468E388E20E946E
:10467000891468E270E080E090E00E940F1B6FE315
:1046800088E20E94891468E186E10E94891460E052
:1046900082E00E94891460E083E00E94891460E057
:1046A00084E00E9489146FEE85E00E94891460E026
:1046B00086E00E94891460E087E00E94891461E02E
:1046C00088E00E9489146FE389E00E94891461E008
:1046D00070E080E090E00E940F1B6FEF80E00E948E
:1046E00089146FEF81E60E9489146FEF82E60E94C1
:1046F00089146FEF83E60E94891461E070E080E026
:1047000090E00E940F1B8FEF9FEF0E94AD148091ED
:1047100002018064809302019D9AA59A6D98759A12
:1047200080ED0E94021480E90E94021489E29CE557
:10473000AFE0BEEB80937A0690937B06A0937C0655
:10474000B0937D0684E091E090937706809376069F
:104750008CEE91E5A8E3BEEB80937E0690937F06F6
:10476000A0938006B09381068EE591E09093790640
:104770008093780660E082E00E94FA1360E083E0B4
:104780000E94FA1360E086E00E94FA1360E087E07E
:104790000E94FA1360E082E20E94ED138091020110
:1047A0008061809302012C98812C9CE2992EAA248E
:1047B000A394B12C80E00E942C0E80E00E942C0E6D
:1047C000F1E08F1A9108A108B108A1F72C9A00EE28
:1047D0001FEF2FE930E04FEE50E060E070E080E046
:1047E00090E0CFD920E143EE52E062E070E082E059
:1047F00090E0F4D820E14FEE52E066E170E082E014
:1048000090E0ECD820E14BEF52E06AE270E082E009
:1048100090E0E4D80E945C0D20EE37E046E053E0E3
:1048200067E070E081E090E042DA2FEF37E04EE0A1
:1048300053E069E070E082E090E039DA20EE37E0A2
:1048400048E153E069E070E083E090E030DA2FEF78
:1048500037E042E253E06BE070E084E090E027DA7A
:104860002FEF3FEF4EE253E06BE070E085E090E029
:104870001EDA20EE3FEF4AE353E064E070E088E0A8
:1048800090E015DA2FEF3FEF4FE353E06BE070E07D
:1048900087E090E00CDA20EE37E04BE453E06CE088
:1048A00070E086E090E003DA0E94DB0C0E94AE0C20
:1048B00010E0812F8EDB80E1810F8BDB47DB68E22C
:1048C00070E080E090E00E940F1B1F5F103189F7BD
:1048D00077247394AA24A394B12C64E170E080E05F
:1048E00090E00E940F1B912C812C05EC602E809192
:1048F0008707981608F093C0E92DF0E0EE0FFF1F30
:10490000E958F84F008111810115110509F485C09E
:10491000882019F08824839480C0280126E1420E63
:10492000511C680130E1C30ED11CF601D20186E0B2
:1049300001900D928A95E1F7F801848D70924806F6
:1049400080936A061092490610926B0680E490E00C
:104950000E9432159EDAF801848D909147069111DC
:10496000FCCF7092470670924606FFEFF093450623
:104970001092440625E020934306709222069091FF
:104980002206880F892B8093220680912106813090
:1049900069F410922106809122068093BB008091D9
:1049A000BC0083FDF8CF6092BC0003C035EE3093AD
:1049B000BC00809147068130E1F380914406863047
:1049C00018F48091440601C086E0A3E2B6E0E7EA6D
:1049D000F3E09E2F27EA33E0921B981718F49D917D
:1049E0009193F7CF1092A6038093A503120180E262
:1049F00097E00E947C19F60181936F01E415F5059B
:104A0000B1F7045E1F4FF10191911F01379780812B
:104A1000981380CF20163106B1F7939468CF882081
:104A200009F48CC078E3C72E72E0D72EE8E28E2E10
:104A3000E2E09E2E10E0F9E94F2E0FE7A1E95A2E91
:104A4000B1E86B2E812F0E940615382E812F0E940F
:104A5000DA14831508F048C0812F82958F709091E9
:104A60008707891738F5E12FEF70F0E0E550F64F32
:104A70002491E82FF0E0EE0FFF1FE958F84FA22F26
:104A8000B0E054E0B595A7955A95E1F7AA0FBB1F82
:104A900080819181A80FB91F2F70C50102C0880FB6
:104AA000991F2A95E2F72D913C911197822B932B18
:104AB0008D939C938091C703811108C08091C80396
:104AC0008C50F6019081890F598203C0F4018081D6
:104AD00049828A830B8343E050E0BE016F5F7F4FC2
:104AE00088E897E00E94920B812F0E940615382ECD
:104AF000812F0E94DA143816B0F4812F6ADA80917F
:104B0000C8038C50F6019081890F19821A821B828A
:104B100069828A8343E050E0BE016F5F7F4F88E87F
:104B200097E00E94920B1F5FFFEFCF1ADF0A2FEF73
:104B3000821A920A103209F085CF08DA659998C076
:104B400080ED0E9402144C0180E90E9402148C0145
:104B500080ED0E9402142C0180E90E9402146C0175
:104B60008414950428F0C201C2968816990650F064
:104B70004814590408F464C0C401C2964816590682
:104B800008F05EC00C151D0528F0C601C296081776
:104B9000190750F0C016D10608F452C0C801C296D9
:104BA000C816D90608F04CC0B201680D791D76957B
:104BB000679580E090E0E1D220917A0630917B0603
:104BC00040917C0650917D0666D31B012C016091BB
:104BD000760670917706072E000C880B990BCFD2C2
:104BE0009B01AC01C201B10138D29BD27093710616
:104BF00060937006B601600F711F7695679580E02F
:104C000090E0BBD220917E0630917F0640918006D5
:104C10005091810640D31B012C0160917806709160
:104C20007906072E000C880B990BA9D29B01AC01C9
:104C3000C201B10112D275D27093730660937206ED
:104C40008091740687FD2EC080EC8093740680915D
:104C500070069091710690936D0680936C0680911A
:104C600072069091730690936F0680936E061AC039
:104C70008091740687FF04C08F778093740612C0FA
:104C800010926D0610926C0610926F0610926E06CE
:104C90008FEF9FEF90937106809370069093730649
:104CA000809372068091740687FF2DC080917206F2
:104CB000909173069C01205A31092F39310528F54E
:104CC0002091700630917106A90141505109473772
:104CD000510550F468E270E090D17B01EE0CFF1CAE
:104CE00037E0E31AF10811C0295731092737310598
:104CF00060F468E270E081D17B01EE0CFF1C86E07D
:104D0000E81AF10802C0E12CF12CF092CE03E092F7
:104D1000CD03E114F10409F460C08E2DE092CC03C0
:104D20009091CB03E91609F45AC0E092CB0382308C
:104D300039F48091CA038F3708F051C08F5F08C0E3
:104D4000843079F48091CA03882309F448C08150E3
:104D50008093CA030E94DB0C8091CA030E9436151F
:104D60003EC0833039F48091CA038830C0F1887F17
:104D70008850EECF813039F48091CA03883778F5B6
:104D8000887F885FE5CF853049F48091C803909192
:104D9000C9038C3091051CF501960BC0873091F446
:104DA0008091C8039091C903853FEFEF9E07BCF047
:104DB00001979093C9038093C8030E94100E0E942C
:104DC0005C0D0DC0863059F48091C703F1E08F2748
:104DD0008093C7030E94AE0C02C01092CB030E94C6
:104DE000DD187BCD109286061092850688EE93E042
:104DF000A0E0B0E08093870690938806A093890690
:104E0000B0938A062CE732E0309384062093830621
:104E100025EC30E03093900620938F0624EC30E0B0
:104E2000309392062093910620EC30E03093940664
:104E30002093930621EC30E030939606209395065C
:104E400022EC30E0309398062093970626EC30E071
:104E500030939A062093990610929C0610929D0614
:104E600010929E0610929F0610922307109222071E
:104E70008093240790932507A0932607B0932707D4
:104E80008CE892E0909321078093200780E580933F
:104E90002C0710922D0710923307109234071092AE
:104EA00037071092390782E090E0A0E0B0E08093ED
:104EB0003A0790933B07A0933C07B0933D071092AD
:104EC000510710925B0710925A078CE992E0909379
:104ED00059078093580710925D078CEA92E09093EF
:104EE00089078093880710928D0710928C0784EAB7
:104EF00092E090938B0780938A0710929607109206
:104F00009507109298071092970710929A0710929F
:104F1000990710929C0710929B0710929D0761E0E1
:104F200082E00E94D31A61E082E00E94561AEBEE02
:104F3000F4E1E491E0939207E5EAF4E1E491F0E032
:104F4000EE0FFF1FE159FB4E8591949190939407CA
:104F50008093930760E08FEF0E94D31A61E08FEF98
:104F60000E94561A8FEF80938E07E8EEF5E1E491E8
:104F7000E0938F07E2EAF5E1E491F0E0EE0FFF1F26
:104F8000E757FB4E859194919093910780939007FA
:104F900010929E078CEB97E09093780780937707A9
:104FA0008FE997E090937A078093790710927C07B6
:104FB00010927B0710927E0710927D071092800757
:104FC00010927F0710928207109281071092840737
:104FD0001092830710928607109285071092870718
:104FE000E7E7F7E080E021913191232B19F08F5F03
:104FF0008830C9F7809387070895AA1BBB1B51E12E
:1050000007C0AA1FBB1FA617B70710F0A61BB70B38
:10501000881F991F5A95A9F780959095BC01CD01DD
:10502000089597FB072E16F4009406D077FD08D05C
:10503000E4DF07FC05D03EF4909581959F4F0895DD
:10504000709561957F4F0895EE0FFF1F881F8BBFEE
:105050000790F691E02D19945058BB27AA270ED03F
:10506000E0C0D1D030F0D6D020F031F49F3F11F421
:105070001EF4C6C00EF4E095E7FBBCC0E92FE2D0F9
:1050800080F3BA17620773078407950718F071F465
:105090009EF5FAC00EF4E0950B2EBA2FA02D0B0151
:1050A000B90190010C01CA01A0011124FF27591B6D
:1050B00099F0593F50F4503E68F11A16F040A22F73
:1050C000232F342F4427585FF3CF469537952795E4
:1050D000A795F0405395C9F77EF41F16BA0B620BE3
:1050E000730B840BBAF09150A1F0FF0FBB1F661F2A
:1050F000771F881FC2F70EC0BA0F621F731F841F6D
:1051000048F4879577956795B795F7959E3F08F092
:10511000B3CF9395880F08F09927EE0F9795879551
:10512000089598D088F09F5790F0B92F9927B751DC
:10513000A0F0D1F0660F771F881F991F1AF0BA955B
:10514000C9F712C0B13081F09FD0B1E008959CC082
:10515000672F782F8827B85F39F0B93FCCF3869551
:1051600077956795B395D9F73EF4909580957095AE
:1051700061957F4F8F4F9F4F0895E89409C097FB2B
:105180003EF490958095709561957F4F8F4F9F4F1E
:105190009923A9F0F92F96E9BB279395F695879562
:1051A00077956795B795F111F8CFFAF4BB0F11F425
:1051B00060FF1BC06F5F7F4F8F4F9F4F16C08823CC
:1051C00011F096E911C0772321F09EE8872F762F02
:1051D00005C0662371F096E8862F70E060E02AF043
:1051E0009A95660F771F881FDAF7880F969587952F
:1051F00097F9089597F99F6780E870E060E0089557
:105200009FEF80EC089500240A94161617061806DE
:105210000906089500240A941216130614060506BA
:105220000895092E0394000C11F4882352F0BB0F4B
:1052300040F4BF2B11F460FF04C06F5F7F4F8F4FAE
:105240009F4F089557FD9058440F551F59F05F3FE9
:1052500071F04795880F97FB991F61F09F3F79F098
:1052600087950895121613061406551FF2CF46951A
:10527000F1DF08C0161617061806991FF1CF86959C
:105280007105610508940895E894BB276627772780
:10529000CB0197F908950BD0C4CFB5DF28F0BADF62
:1052A00018F0952309F0A6CFABCF1124EECFCADFBB
:1052B000A0F3959FD1F3950F50E0551F629FF00129
:1052C000729FBB27F00DB11D639FAA27F00DB11D82
:1052D000AA1F649F6627B00DA11D661F829F22270B
:1052E000B00DA11D621F739FB00DA11D621F839F92
:1052F000A00D611D221F749F3327A00D611D231F68
:10530000849F600D211D822F762F6A2F11249F57B5
:1053100050408AF0E1F088234AF0EE0FFF1FBB1FD8
:10532000661F771F881F91505040A9F79E3F510577
:1053300070F060CFAACF5F3FECF3983EDCF3869528
:1053400077956795B795F795E7959F5FC1F7FE2B22
:10535000880F911D9695879597F9089581E090E0C3
:10536000F89442C0FB01DC0105900D920020E1F7AA
:1053700008952BD0A59F900DB49F900DA49F800DF4
:10538000911D11240895A1E21A2EAA1BBB1BFD0139
:105390000DC0AA1FBB1FEE1FFF1FA217B307E40714
:1053A000F50720F0A21BB30BE40BF50B661F771F6C
:1053B000881F991F1A9469F760957095809590954C
:1053C0009B01AC01BD01CF010895A29FB001B39F25
:1053D000C001A39F700D811D1124911DB29F700DFE
:0C53E000811D1124911D0895F894FFCF49
:1053EC00FFFFFFFF01000000393B3C3E5153545678
:1053FC00323435374A4C4D4F2B2D2F3043454748CF
:10540C00242628293C3E40412E2A2623272C2824BA
:10541C0032302F293735333129282624302F2D2BA4
:10542C00373534323E3C3B3941403E3C484745439E
:10543C004F4D4C4A565453510000780000007800F0
:10544C000000780000007800A100A100C900C9008C
:10545C00F100F10019011901000000007618F31792
:10546C0040181E183218BC1800000000C7199819F3
:10547C0090197C196D196C19000000001612F317A5
:10548C00000000004A0BF31700000000C30B920B46
:10549C004D656C6F6479004472756D7300496E7361
:1054AC007472756D656E7400647261775F6C61798E
:1054BC006F757400203A20000D0A006661696C65F6
:1054CC0064210076312E31202042414E4B3A004966
:1054DC004E535452554D454E543A00504C41592060
:1054EC004D4F44453A0042414E4B20555000494ED9
:1054FC005354522E2055500042414E4B20444F578E
:10550C004E00494E5354522E20444F574E00545285
:10551C00414E53504F5345202B004D454E55005492
:10552C0052414E53504F5345202D004452554D205F
:08553C004D414348494E450072
:00000001FF
